:100000000C9408760C9439760C9439760C943976E5
:100010000C9439760C9439760C9439760C943976A4
:100020000C9439760C9496970C9496970C9496971A
:100030000C945BA30C9439760C9439760C946896E6
:100040000C9439760C9468970C9439760C94397624
:100050000C9439760C9439760C9439760C941E965F
:100060000C9439760C94E8950C94BE950C943976E2
:100070000C9439760C9439760C9439760C94397644
:100080000C943A970C9439760C9439760C94397612
:100090000C9439760C9439760C9439760C94397624
:1000A0000C9439760C9439760C940C970C94397620
:1000B0000C9439760C9439760C9439760C94DE963F
:1000C0000C9439760C9439760C9439760C943976F4
:1000D0000C9439760C9439760C9488950C945E9532
:1000E0000C9439760C9401760C94A57B0C945EA349
:1000F0000C9463770C94BD7B0C94D1780C94FB75B5
:100100000C94687C0C9488740C94EC750C94E478D2
:100110000C94B7A50C94DE780C94537C0C94DA788C
:100120000C94FF780C9402900C9456870C940778EA
:100130000C94FA780C94C5770C94327C0C94BF78AC
:100140000C9422870C94D4780C94CD780C94277757
:100150000C9404790C9400790C94C5780C94EE8678
:100160000C94E8780C94F2780C94F6780C94C97896
:100170000C94BE7B0C941A7C0C948A870C94EC78BB
:100180000C942F860C9454770C94B7770C94B67417
:100190000C94C8750C945478BBE733C2F34E32C24A
:1001A0000BA430C238E72EC2C8182DC224392BC286
:1001B000664829C2F74627C2253525C20C1323C23B
:1001C000F9E020C2569F1EC23C4E1CC2FAED19C275
:1001D000C57E17C2EC0015C2887412C2CED90FC2F8
:1001E000F2300DC2447A0AC2C3B507C2BDE304C2ED
:1001F000330402C2E62EFEC1FB3AF8C1DA2CF2C18A
:10020000EA04ECC12DC3E5C1D567DFC1E5F2D8C171
:10021000C364D2C13CBDCBC150FCC4C1FF21BEC12F
:100220007D2EB7C1CB21B0C14AFBA8C164BBA1C11F
:10023000E5619AC163EE92C1AA608BC186B883C1A1
:1002400085EB77C1EC2F68C1D93D58C1A91348C1CE
:100250005BB137C14D1527C1423E16C16B2B05C19D
:1002600046B6E7C05F98C4C0DBF9A0C043AD79C013
:10027000D65630C036CDCBBF05A3D2BE27A0493F4E
:10028000645D00403A924F404A0C904022FDB840D5
:10029000A9A4E2401F850641DA1B1C41DA1B32414A
:1002A000A08948418B6C5F41C1CA7641D0558741D6
:1002B0004A8C9341500DA04135DEAC411F05BA4137
:1002C0003789C7417C72D54123CAE341099BF2417A
:1002D00024F9004283EF0842F5391142F1E3194253
:1002E000B3FB22428F932C42B0C33642C0AC414292
:1002F0003C7D4D42647B5A42E8196942632E7A4242
:10030000BCD68742D01538C2FD7636C2D6C534C2B7
:10031000AA0233C2C62D31C294472FC248502DC203
:1003200031482BC2832F29C2C20627C207CE24C25E
:10033000888522C2C62D20C2C2C61DC2E5501BC27E
:1003400064CC18C2723916C2459813C210E910C2A3
:10035000082C0EC262610BC2378908C2A3A305C272
:100360000DB102C28262FFC15249F9C15316F3C1F5
:10037000EFC9ECC15A64E6C160E5DFC16A4DD9C17D
:10038000789CD2C189D2CBC19EEFC4C1B6F3BDC1A6
:10039000D3DEB6C1F2B0AFC1E269A8C16C09A1C198
:1003A0005C8F99C1B3FB91C1074E8AC1258682C17A
:1003B000AE4775C1984C65C1711B55C12DB244C182
:1003C000CB1034C1A83523C18A1F12C136CD00C15C
:1003D000107ADEC05DDCBAC099BB96C03D2C64C00B
:1003E00007CE19C07AA59CBF8716D9BCFB3A983FA7
:1003F0005F291B404A7B6B40D1919E40C217C84089
:100400007958F24043AD0E41189524413EE83A41F7
:10041000DAAC514179E96841895280411F748C41BD
:1004200001DE98411895A541569FB2414703C0414E
:100430004BC8CD419AF7DB41A09AEA41D9BDF941B9
:10044000B5B70442F3DF0C424E6215425E4B1E42CA
:10045000BAAB27425F983142AC2D3C420C934742E5
:10046000F2015442CAD46142A7A87142206182427B
:100470002E3F3CC2E8993AC234E238C2791837C2FA
:10048000D33C35C2C54F33C2835131C275422FC2EE
:10049000EB222DC2FFF22AC24DB328C2D76326C277
:1004A000050524C20A9721C2511A1FC2F38E1CC22D
:1004B00025F519C2364D17C2599714C2C3D311C2BC
:1004C000AA020FC226240CC2863809C2B13F06C256
:1004D000103A03C2A12700C20011FAC18CB9F3C1BE
:1004E0001D49EDC1B1BFE6C1B21DE0C1EB62D9C18A
:1004F000918FD2C1A3A3CBC1219FC4C1D881BDC15B
:10050000FB4BB6C156FDAEC1B595A7C11815A0C12C
:10051000167B98C17AC790C110FA88C1A31281C115
:10052000962172C1D5E761C19A7751C114D040C1FB
:100530009EEF2FC167D51EC134800DC1C6DCF7C048
:100540009F3CD4C04F1EB0C01C7C8BC01EA74CC0AB
:10055000D93D01C001DE52BF67D5C73E77BECF3F50
:100560008E0638403CBD8440DD24AE405B42D8401E
:10057000F38E0141426017416B9A2D412D43444156
:10058000AA605B41DBF97241448B8541A4DF914154
:10059000C57E9E412F6EAB416EB4B8411058C64126
:1005A000B161D441BADAE24107CEF14174A400420C
:1005B00077AD0842920B114272CA1942BBF822422F
:1005C0002AA92C4288F43642B9FC4142AAF14D4294
:1005D000AC1C5B4211F6694296617B42F16340C2FA
:1005E00003B83EC272F93CC2A7283BC20B4639C2CF
:1005F000D15137C2644C35C2113633C2280F31C2D3
:10060000F6D72EC2E5902CC22A3A2AC212D427C2AB
:10061000ED5E25C2EEDA22C2664820C287A71DC25F
:10062000A1F81AC2E73B18C2907115C2CE9912C246
:10063000BCB40FC2AAC20CC296C309C2B5B706C2E7
:100640003B9F03C2447A00C29D91FAC11E16F4C1B9
:100650000C82EDC167D5E6C19710E0C19C33D9C1CA
:10066000423ED2C1BE30CBC1DB0AC4C198CCBCC1B2
:100670002B76B5C1F706AEC1637FA6C19EDE9EC1D3
:10068000DD2497C1B7518FC1F76487C16ABC7EC1B1
:10069000A7796EC1A3015EC126534DC1F46C3CC164
:1006A000D34D2BC188F419C1426008C1E71DEDC0CC
:1006B000F4FDC8C0355EA4C025757EC0A01A33C045
:1006C000DF4FCDBFE78CC8BE42CF563F2DB20540AD
:1006D00094F65640E3C794406DC5BE40EE7CE940B9
:1006E000B37B0A41ED9E2041E02D3741B22E4E41B1
:1006F000F0A7654190A07D4197108B419A99974151
:100700003B70A441A09AB141561FBF415906CD414B
:100710001058DB41561FEA41D567F94142A0044217
:1007200049DD0C42A8751542AE761E420DF12742F6
:10073000ADFA3142F2B03C42D33C4842A0DA5442D6
:10074000E2E962420C137342338444C234D142C2A0
:10075000920B41C282333FC26C493DC2B94D3BC28C
:10076000D24039C2D12237C254F434C28EB532C21B
:10077000CF6630C280082EC2D49A2BC21B1E29C25B
:10078000BD9226C2BBF823C2975021C2869A1EC2D0
:10079000A1D61BC2530519C29B2616C2C73A13C263
:1007A0000C4210C2853C0DC24B2A0AC2920B07C2F2
:1007B00090E003C22AA900C25ECBFAC13D2CF4C16D
:1007C000F174EDC17AA5E6C177BEDFC148BFD8C1DB
:1007D00058A8D1C1A779CAC1FF32C3C12CD4BBC1AB
:1007E000645DB4C13CCEACC18126A5C132669DC159
:1007F0001B8D95C1A09A8DC18A8E85C14ED17AC1BB
:10080000B1506AC16B9A59C1ACAD48C1CE8837C1ED
:100810006B2B26C1759314C11AC002C1CC5DE1C017
:10082000E0BEBCC0E09C97C057EC63C0098A17C00B
:10083000061294BF98DD933DC3F5A83FAF942540C1
:10084000B9FC77403BDFA540F775D040C1CAFB40FB
:10085000B6F31341E86A2A411A51414171AC58413B
:10086000E4837041D26F8441F1E39041A3A39D41A1
:1008700039B4AA41431CB841EBE2C5416210D441EE
:10088000B2AEE2411DC9F14160B6004218D508423E
:10089000584A114219221A42BA6B2342783A2D4221
:1008A00058A8374279D84242BFFD4E42AF655C42FC
:1008B00054926B4227A048C2C9E546C2931845C26C
:1008C000EF3843C22B4741C296433FC2CC2E3DC2B4
:1008D000E9083BC289D238C2C78B36C2253534C23B
:1008E000D9CE31C24B592FC2CAD42CC2A3412AC27D
:1008F0000DA027C255F024C2CA3222C287671FC288
:10090000F38E1CC210A919C246B616C2AEB613C2E7
:1009100065AA10C29D910DC28B6C0AC2303B07C202
:10092000D9FD03C26EB400C20EBEFAC1B3FBF3C15F
:100930009621EDC1EC2FE6C1E926DFC15906D8C1E9
:100940003CCED0C1C57EC9C18D17C2C19398BAC172
:10095000D801B3C1F252ABC1E18BA3C13DAC9BC185
:10096000D0B393C134A28BC1327783C1C36476C143
:100970004CA665C12DB254C12B8743C1742432C12A
:10098000668820C1C4B10EC1AB3EF9C0499DD4C038
:10099000EE7CAFC07FD989C0CC5D47C0DFE0F3BF3C
:1009A000BF7D2DBF006F113F05A3EA3F508D47402B
:1009B000228E8D408E06B840C139E3408D970741A5
:1009C00009F91D413FC63441BC054C4177BE634126
:1009D00066F77B41C65C8A41F706974197FFA341C2
:1009E000014DB1418EF5BE416F01CD41DB79DB4157
:1009F0004469EA415DDCF941F2F00442F0450D4200
:100A000038F8154281151F4269AF284292DC324204
:100A100002BC3D4209794942125456426EB46442C6
:100A2000CFB74CC2C3F54AC2AA2049C2093947C24E
:100A30002E3F45C2823343C26D1641C23EE83EC2DC
:100A400093A93CC2865A3AC2B3FB37C2368D35C22F
:100A5000760F33C2DE8230C2A1E72DC2283E2BC200
:100A60008E8628C23BC125C263EE22C2560E20C22A
:100A700013211DC21E271AC25C2017C2360D14C2D4
:100A8000ACED10C20CC20DC23D8A0AC28E4607C22E
:100A900017F703C2C09B00C2AD69FAC18184F3C1DC
:100AA0003188ECC1F174E5C1584ADEC1CE08D7C126
:100AB000ECAFCFC11A40C8C1BBB8C0C1021AB9C19E
:100AC0008863B1C14D95A9C11BAFA1C155B099C1F2
:100AD000FC9891C1A76889C1ED1E81C1C97671C119
:100AE000787A60C1E9484FC176E03DC17D3F2CC1B5
:100AF00095651AC1485008C1B9FCEBC08CDBC6C073
:100B0000933AA1C0242876C086C928C0A69BB4BF4A
:100B100068B32ABE8F538C3F9F3C18400F9C6B409C
:100B20003D2CA0407D3FCB409D11F740D0D51141D9
:100B30007E8C28412DB23F413C4E574138676F4172
:100B4000AA028441FC9890417F7B9D41B8AFAA41A5
:100B50009F3CB8412A29C6415D7ED4410B46E34102
:100B6000158CF241002F01426666094260F611427F
:100B70006BEB1A424D5524429A482E425CE03842B3
:100B80005B424442C3A45042F55B5E425ECB50C21E
:100B90003B014FC2D7234DC2D0334BC2763149C23D
:100BA000491D47C29AF744C2ECC042C28C7940C288
:100BB000E5213EC278BA3BC2614339C23CBD36C270
:100BC0003E2834C2B68431C2F2D22EC240132CC2A7
:100BD000F04529C2366B26C2618323C2A58E20C28E
:100BE0001B8D1DC22E7F1AC2DD6417C25D3E14C26A
:100BF000E10B11C284CD0DC261830AC2AC2D07C2C4
:100C00004ACC03C2705F00C270CEF9C111C7F2C1F5
:100C1000F6A8EBC15474E4C1C128DDC1A8C6D5C192
:100C20009F4DCEC1A5BDC6C1BC16BFC17958B7C1C5
:100C30001283AFC1B595A7C197909FC1197397C192
:100C40003C3D8FC163EE86C1E10B7DC1C8076CC11D
:100C500070CE5AC1705F49C124B937C1BADA25C113
:100C600027C213C12F6E01C18CB9DDC09318B8C063
:100C70005AF591C0EA9556C03D2C08C0418262BF2A
:100C800080B7C03EBF0ED43FD93D3D40BDE3884054
:100C900051DAB340AC8BDF4069000641CBA11C4167
:100CA00021B0334190314B41A52C634193A97B4145
:100CB00079588A41182697412D43A44111B6B14174
:100CC000BC85BF412ABACD41FB5CDC413E79EB419A
:100CD000A61BFB41FCA905426B1A0E4299EA16427B
:100CE000F62820420AE82942E63F344268513F4252
:100CF000444B4B42B6735842EEDA54C24B0853C2CF
:100D0000342251C25F294FC2351E4DC206014BC26B
:100D10006FD248C2BD9246C25B4244C2CBE141C2DF
:100D20005B713FC276F13CC282623AC2B6C437C23E
:100D3000931835C24F5E32C239962FC2B8C02CC24A
:100D4000E7DD29C2FAED26C276F123C23EE820C2D1
:100D5000D7D21DC227B11AC2968317C2094A14C23C
:100D6000EA0411C239B40DC2F6570AC26FF006C2C6
:100D70008B7D03C2C5FEFFC122ECF8C12DC3F1C1BA
:100D80001984EAC17D2EE3C18FC2DBC14F40D4C1BB
:100D900087A7CCC103F8C4C1C431BDC19554B5C146
:100DA0004260ADC12C54A5C18A309DC1BCF494C130
:100DB0005CA08CC1333384C1E25877C1C21766C1CD
:100DC000CBA154C1C3F542C1061231C1C3F51EC146
:100DD000849E0CC1C217F4C02575CEC08F53A8C025
:100DE00014AE81C0F4FD34C0E10BCBBF1D38A7BEEB
:100DF0002AA9733F16FB0F40795864409A089D401A
:100E0000A69BC84063EEF440530511418BFD27417A
:100E1000FE653F41A24557416EA36F413344844173
:100E20005DFE9041F0059E41AA60AB411815B941A5
:100E3000362BC741D4ABD54162A1E441C217F4417E
:100E4000D90E02424E620A42CB10134287271C423F
:100E500032B7254281D52F42A49F3A420E3E4642E8
:100E60003DEC52429BE658C2F50A57C2DA1B55C206
:100E7000CE1953C2530551C2D3DE4EC2CFA64CC2C7
:100E8000B25D4AC2FE0348C2029A45C25C2043C218
:100E90003F9740C22EFF3DC25F583BC254A338C2A9
:100EA00042E035C2760F33C25B3130C225462DC2D7
:100EB000224E2AC26C4927C26C3824C23D1B21C273
:100EC00013F21DC208BD1AC26A7C17C2553014C283
:100ED000C8D810C2F7750DC217080AC2F38E06C231
:100EE000DB0A03C29AF7FEC161C3F7C17279F0C190
:100EF0006519E9C1A3A3E1C1C217DAC1C375D2C1A3
:100F0000A5BDCAC135EFC2C13D0ABBC1560EB3C1B2
:100F10007FFBAAC11AD1A2C1288F9AC13F3592C1C5
:100F2000C4C289C1803781C1462571C187A75FC10D
:100F3000F1F44DC1E10B3CC1B3EA29C1979017C14F
:100F400016FB04C1EC51E4C05530BEC0508D97C0B3
:100F50003FC660C0FB5C11C0B5A681BFCB10873E09
:100F6000F9A0C73F8E063840E3C78640E63FB2404F
:100F7000B072DE4074B505419A991C411CEB3341B7
:100F8000F2B04B4113F2634146B67C417B038B4187
:100F9000C9F69741FB3AA54139D6B24114D0C041B8
:100FA000BE30CF414102DE41DF4FED411E27FD4102
:100FB0004ACC0642C05B0F42224E1842CAB22142BE
:100FC000499D2B42872736423F75414258B94D42D1
:100FD0007DEE5CC26C095BC2B11059C2050557C2F7
:100FE000B5E654C27AB652C2A27450C2CB214EC2E8
:100FF00042BE4BC2A64A49C245C746C2A23444C2F9
:101000000C9341C2EBE23EC28F243CC2795839C2F4
:10101000C57E36C2DC9733C20BA430C288A32DC272
:1010200087962AC2717D27C2455824C2522721C201
:10103000CEEA1DC2EBA21AC2914F17C227F113C20A
:10104000948710C20C130DC2A99309C26C0906C281
:101050006E7402C22AA9FDC12C54F6C1ADE9EEC1DD
:10106000AD69E7C1F8D3DFC1C128D8C1A167D0C13C
:10107000CB90C8C1A3A3C0C127A0B8C1F085B0C19F
:10108000FE54A8C1B30CA0C1DAAC97C10B358FC117
:10109000A9A486C194F67BC10D716AC180B758C1FD
:1010A0004BC846C134A234C1964322C19FAB0FC185
:1010B000E6AEF9C0AC8BD3C079E9ACC033C485C00F
:1010C000992A3CC0FE65D7BFD7A3D0BEAAF1623F24
:1010D00070CE0C400E2D624025759C40448BC8405C
:1010E000B762F54041821141E0BE28418B6C40411E
:1010F000A3925841EF387141053485417B149241E8
:1011000096439F417AC7AC41E9A6BA41E2E9C8419A
:10111000CE99D74189C1E641C66DF641D656034204
:10112000BAC90B42D49A144245D81D42A99327420A
:1011300074E431424BEA3C4283D14842B0F260C28F
:1011400096035FC2EC005DC202EB5AC28FC258C266
:10115000178856C2023C54C2EDDE51C241714FC2E3
:1011600082F34CC218664AC286C947C21B1E45C2DA
:10117000406442C25D9C3FC2DCC63CC2F1E339C25E
:10118000EBF336C232F733C2FAED30C279D82DC252
:10119000FDB62AC2BA8927C2E55024C2B30C21C2C7
:1011A00022BD1DC29C621AC208FD16C2988C13C2D1
:1011B000681110C2788B0CC2FBFA08C2F35F05C23B
:1011C00044BA01C24614FCC1ED9EF4C17B14EDC1CA
:1011D000F174E5C11AC0DDC1C3F5D5C11E16CEC17B
:1011E000C520C6C18115BEC1EBF3B5C102BCADC1FE
:1011F000296DA5C12B079DC1A08994C11FF48BC186
:101200003F4683C15DFE74C1083D63C1454751C17E
:10121000711B3FC1BBB82CC1151D1AC1744607C153
:101220003867E8C005C5C1C062A19AC0CCEE65C0F0
:10123000F08515C02BF687BF8CB96B3EB459C53FFE
:10124000C9E53740933A87407A36B340CCEEDF4069
:1012500017B70641A4DF1D4132773541B6844D41B1
:10126000BF0E66414F1E7F41355E8C41A779994183
:101270006DE7A64149AEB4419BD5C2416666D141F6
:10128000E86AE04100EFEF4183000042175908424D
:10129000920B1142F7241A428EB523426FD22D428F
:1012A000F6973842292D444233F364C2C1F962C231
:1012B00071EC60C2E1CB5EC2C8985CC28F535AC267
:1012C000B9FC57C2FE9455C2AC1C53C27B9450C2A9
:1012D0009FFC4DC2B5554BC227A048C243DC45C256
:1012E0008C0A43C2362B40C2C53E3DC26D453AC250
:1012F000973F37C25D2D34C2280F31C22CE52DC275
:1013000083AF2AC2986E27C2682224C229CB20C28A
:1013100010691DC250FC19C2D08416C2C40213C287
:1013200046760FC256DF0BC2283E08C2899204C21D
:10133000ACDC00C2EF38FAC1D7A3F2C110FAEAC19F
:10134000643BE3C10A68DBC1637FD3C1A381CBC126
:101350002F6EC3C10545BBC1F005B3C18AB0AAC198
:101360003344A2C1ECC099C1E32591C1197388C16E
:101370000E4F7FC1F0856DC1CE885BC13F5749C11B
:101380009EEF36C1DF4F24C1607611C1CAC3FCC0D5
:10139000211FD6C050FCAEC06D5687C0D34D3EC095
:1013A000FCA9D9BFFCA9D1BE9D80663F0BB50E40FC
:1013B000711B65400D719E40840DCB40F46CF8406C
:1013C000014D134114D02A41D6C5424111365B412B
:1013D00024287441BDD28641F5DB93413F35A141BC
:1013E000F7E4AE417CF2BC413266CB41EF49DA41D1
:1013F000C1A8E9416290F941660805429E9E0D42EE
:10140000F09616424F00204214EE2942C179344230
:10141000F0C53F423BF068C2BAEB66C240D364C23B
:1014200087A762C22A6960C2AE185EC2C9B65BC233
:10143000E44359C283C056C25D2D54C2A68A51C22C
:1014400017D94EC2E2184CC2A64A49C2B26E46C271
:101450006D8543C2288F40C2308C3DC2EE7C3AC2BB
:101460007C6137C2443A34C27A0731C252C92DC2B4
:101470001A802AC2D42B27C2B3CC23C2056320C250
:10148000CCEE1CC2217019C21EE715C2DE5312C277
:101490007AB60EC2F30E0BC2495D07C27CA103C22D
:1014A00080B7FFC18D17F8C15463F0C1D49AE8C169
:1014B000D9BDE0C130CCD8C1D6C5D0C130AAC8C1D1
:1014C0007279C0C1FF32B8C16DD6AFC1F163A7C197
:1014D00086DA9EC1F53996C10C828DC1C4B184C132
:1014E000D19177C1B98D65C19B5553C13EE840C1CB
:1014F000FE432EC138671BC1485008C172F9E9C0CC
:10150000A1D6C2C061329BC0910F66C0D7A314C0E0
:101510003D2C84BF8D288D3EA835CD3F8CDB3C40D3
:10152000FB3A8A400EBEB6400000E4405305094134
:10153000257520419B55384143AD50414D8469414B
:101540007671814179698E4183AF9B41BA49A94146
:10155000483FB741F697C541FB5CD4413199E3411F
:101560004B59F34139D6014254520A423D2C1342A1
:10157000C4711C42A2342642E18B3042BC963B42ED
:10158000C7E96CC29AD96AC274B568C2F47D66C2F2
:10159000D03364C2A8D761C2FC695FC26BEB5CC286
:1015A000925C5AC2F4BD57C2141055C25B5352C26A
:1015B0004B884FC24FAF4CC2CEC849C232D546C28B
:1015C000CAD443C2E3C740C2E6AE3DC2098A3AC2AA
:1015D000B45937C2E71D34C20AD730C239852DC28B
:1015E000A7282AC289C126C2145023C246D41FC2CA
:1015F0003C4E1CC228BE18C2262415C21A8011C235
:1016000020D20DC2511A0AC2AE5806C21B8D02C2A8
:10161000696FFDC1BEB0F5C101DEEDC166F7E5C180
:1016200085FCDDC15DEDD5C152C9CDC19790C5C165
:10163000C442BDC13BDFB4C1FE65ACC16DD6A3C120
:1016400055309BC1E57292C1E79D89C1BEB080C192
:101650009B556FC187165DC105A34AC1DBF937C130
:10166000651925C12EFF11C1F853FDC0832FD6C0C7
:10167000158CAEC0C36486C044693BC023DBD1BFB8
:10168000713DAABE764F7E3F2DB2154046256D4076
:1016900022FDA2400B24D040910FFE4095651641DB
:1016A000F9312E411973464155305F41B07278418E
:1016B0006221894167559641C0DBA34193BAB1418C
:1016C000DBF9BF4168A2CE4177BEDD41B459ED419F
:1016D000DE82FD41602507423AE30F42C807194206
:1016E0006EA3224229CB2C423D9B3742F3DF70C2CE
:1016F0007BC36EC20C936CC2284F6AC2A1F867C24A
:10170000149065C2391663C2788B60C2A4F05DC2C2
:1017100025465BC2988C58C24DC455C2FAED52C2E0
:10172000D50950C279184DC2371A4AC25C0F47C258
:1017300052F843C267D540C2E9A63DC20E6D3AC217
:101740000A2837C245D833C2BF7D30C2C8182DC25F
:1017500079A929C2073026C28BAC22C2211F1FC221
:10176000E3871BC2CFE617C2023C14C2948710C2A3
:1017700086C90CC2D80109C26F3005C2815501C2A9
:10178000B1E1FAC1B604F3C14614EBC1F90FE3C1EC
:10179000CFF7DAC192CBD2C1A68ACAC10B35C2C17A
:1017A0008CCAB9C18C4AB1C1A2B4A8C19A08A0C15F
:1017B000D64597C1EE6B8EC1107A85C10DE078C118
:1017C000029A66C15C2054C1767141C17E8C2EC1E3
:1017D000696F1BC1C21708C19A08E9C05A64C1C029
:1017E0007D3F99C0E92661C052B80EC05F986CBFBA
:1017F000E8D9CC3E1D38DF3F79E94640C1CA8F4069
:1018000045D8BC401EA7EA40F9A00C411D5A24410E
:1018100059863C41D42B55418F536E41AA028441D5
:10182000182691419A999E418863AC410F8BBA4129
:10183000FC18C941BC16D841F98FE7410692F7411F
:10184000A116044278BA0C429DC0154238381F4296
:10185000BC34294291CF3342D7D274C25FA972C23D
:10186000D46B70C2EE1A6EC266B76BC2F24169C227
:101870004ABB66C2F12364C2857C61C2BCC55EC23C
:1018800000005CC2D42B59C2BA4956C21D5A53C279
:10189000985D50C246544DC2C53E4AC2491D47C21A
:1018A00021F043C2B5B740C21F743DC2C9253AC238
:1018B000E7CC36C2796933C2E7FB2FC24D842CC214
:1018C000C40229C2807725C268E221C2E4431EC255
:1018D000C09B1AC230EA16C21B2F13C2B36A0FC2D2
:1018E000E09C0BC2BCC507C212E503C2F7F5FFC1FD
:1018F000BF0EF8C14614F0C18E06E8C160E5DFC135
:1019000055B0D7C16D67CFC1090AC7C12B98BEC1F9
:101910003411B6C1F174ADC1F8C2A4C1ADFA9BC116
:10192000711B93C112258AC1BC1681C1A4DF6FC18E
:10193000705F5DC136AB4AC155C137C127A024C114
:101940000B4611C11361FBC002BCD3C0F697ABC0FC
:1019500007F082C04A7B33C0E5F2BFBFA1D634BED8
:101960001B2F953F33C42140E9487A40371AAA40DB
:10197000D9CED740462503419FCD1A41C9E5324112
:101980008E754B41E4836441CE197E41C5208C4164
:10199000AA829941BB38A741584AB54148BFC341C3
:1019A000F9A0D24144FAE14110D8F141C3240142E7
:1019B0008AB00942BA9A124241F11B420BC6254233
:1019C000A43030428FC278C2448B76C2004074C2C9
:1019D00048E171C221706FC229ED6CC2FC586AC225
:1019E0006EB467C2000065C2503C62C2FC695FC24F
:1019F0006C895CC23D9B59C2D99F56C2A89753C2FD
:101A0000128350C282624DC246364AC2C5FE46C2E9
:101A10001CBC43C2B26E40C2BC163DC288B439C2BF
:101A2000174836C2D1D132C2B7512FC2FDC72BC21F
:101A3000BC3428C2109824C2F9F120C2AA421DC2A7
:101A40003D8A19C280C815C2BFFD11C2AD290EC2A0
:101A5000984C0AC2326606C2AE7602C27FFBFCC157
:101A600032F7F4C1D9DFECC174B5E4C1CF77DCC182
:101A70008126D4C155C1CBC11748C3C12ABABAC146
:101A80005917B2C13B5FA9C13491A0C1DAAC97C16B
:101A900090B18EC1ED9E85C13EE878C1136166C1EB
:101AA000B5A653C1E9B740C1A3922DC13F351AC1B4
:101AB000B29D06C1DE93E5C0006FBDC086C994C06B
:101AC0001D3857C061C303C07AA53CBF158C1A3FAF
:101AD0005A64FB3F34115640E2E997401F85C540E8
:101AE000C9E5F340DB8A114197902941780B4241C7
:101AF000DE025B41917E744167448741EA959441DF
:101B00008C39A2417A36B0411294BE418C5BCD41F2
:101B10002497DC41F252EC41B29DFC4167C406427D
:101B200095940F42B3CC18423C7D2242B3BB2C4269
:101B300000AF7CC22A697AC2420F78C234A275C251
:101B40009C2273C2689170C235EF6DC2D33C6BC2E8
:101B5000C77A68C2C7A965C258CA62C2FBDC5FC245
:101B600034E25CC2A0DA59C274C656C24CA653C253
:101B7000787A50C22D434DC2EC004AC2EBB346C244
:101B8000785C43C2ADFA3FC2F38E3CC2651939C2DC
:101B90001D9A35C2681132C2637F2EC20BE42AC27D
:101BA000973F27C2069223C28CDB1FC20F1C1CC2A8
:101BB000A95318C2418214C20AA810C2EAC40CC2B6
:101BC000C8D808C2BDE304C295E500C29FBCF9C1F4
:101BD000A69BF1C10A68E9C19621E1C1E3C7D8C15A
:101BE000EE5AD0C11DDAC7C13945BFC1A69BB6C1E7
:101BF00064DDADC1A009A5C1BE1F9CC1BE1F93C1BC
:101C000066088AC17FD980C174246FC1F1635CC149
:101C1000D26F49C10B4636C1F7E422C1F54A0FC164
:101C20001CEBF6C03FC6CEC0C520A6C029ED79C0CA
:101C3000888526C0CFF7A3BFD7346F3D4260B53F3C
:101C400007F03240A2458640EFC9B340910FE24011
:101C500000910841F085204191ED3841D9CE5141A4
:101C600061326B419790824189D28F41F7649D41E7
:101C7000704EAB415396B9413945C841F764D741DD
:101C80006F01E7412428F741D7F403420EAD0C421F
:101C900003C9154210581F42636E2942224C80C26C
:101CA000F8427EC2B4D97BC2495D79C2A5CE76C264
:101CB0007D2E74C2A57D71C2B9BC6EC28BEC6BC2A5
:101CC0009F0D69C2902066C2FE2563C24F1E60C28E
:101CD000230A5DC2ADE959C28BBD56C20B8653C201
:101CE000964350C260F64CC2B89E49C2EE3C46C212
:101CF00034D142C2DA5B3FC2E0DC3BC2AF5438C2EF
:101D00002DC334C2A72831C239852DC2E2D829C2D9
:101D1000BD2326C2E36522C2569F1EC22ED01AC220
:101D200052F816C2C21713C2982E0FC2B93C0BC28A
:101D30000C4207C2913E03C25A64FEC1C139F6C1CA
:101D4000B9FCEDC177ADE5C15E4BDDC16DD6D4C147
:101D5000074ECCC1F9B1C3C1D801BBC1083DB2C166
:101D60005463A9C15474A0C1006F97C126538EC19A
:101D7000272085C165AA77C154E364C110E951C128
:101D8000C7BA3EC19B552BC1BBB817C1B1E103C156
:101D90000F9CDFC094F6B6C0ABCF8DC0E63F48C005
:101DA000C286E7BF7CF2F0BEAAF1623FD3DE1040EC
:101DB00004566A40D49AA240B4C8D04077BEFF40CF
:101DC0009CC41741CE19304104E7484105346241B3
:101DD00003097C411D388B415EBA98419D91A64113
:101DE00039C5B441FB5CC341EB62D241E5E1E1415D
:101DF00004E7F14106410142EBE20942C3E4124229
:101E000032551C428E462642483F82C2640C81C233
:101E10003B9F7FC2A3127DC205747AC233C477C2CE
:101E2000FE0375C2053472C2FE546FC2A1676CC254
:101E30008B6C69C2406466C2284F63C2E02D60C2E9
:101E4000EC005DC280C859C21F8556C2173753C205
:101E50009EDE4FC2367C4CC2DF0F49C2029A45C299
:101E6000D41A42C26F923EC206013BC2B56637C267
:101E7000B0C333C2F61730C2A3632CC2CFA628C2A8
:101E800096E124C2F81321C2F43D1DC2705F19C24D
:101E9000A17815C2528911C29D910DC2689109C2E3
:101EA0009A8805C2177701C28CB9FAC14D73F2C185
:101EB000091BEAC18AB0E1C19C33D9C1A3A3D0C137
:101EC0006900C8C15249BFC15D7EB6C1B89EADC1EF
:101ED000FCA9A4C1BE9F9BC12E7F92C1E34789C1CB
:101EE00013F27FC10B246DC10B245AC16FF046C1A0
:101EF000948733C16DE71FC1ED0D0CC113F2EFC024
:101F0000C74BC7C0AF259EC01FF468C0128314C062
:101F10001AC07BBF52B8BE3E30BBDF3FA835494038
:101F2000FDF69140BF0EC0401CEBEE40C74B0F4189
:101F3000979027418C4A4041D8815941143F7341C1
:101F4000A2C58641EF3894412EFFA1418A1FB041BE
:101F5000FFA1BE41918FCD41E5F2DC41E2D8EC41D9
:101F6000DF4FFD4125350742ED1E1042E572194253
:101F70005B422342D83084C23FF582C2C5AF81C2E2
:101F8000F96080C2A3127EC254527BC2F28178C231
:101F900034A275C2D0B372C266B76FC2ACAD6CC2A8
:101FA000249769C2547466C2A24563C2AC0B60C276
:101FB000A8C65CC2177759C22F1D56C258B952C263
:101FC000E14B4FC2FED44BC2CA5448C292CB44C26A
:101FD0008C3941C2ED9E3DC299FB39C2F94F36C2E0
:101FE000DA9B32C2A4DF2EC2091B2BC2704E27C25D
:101FF0008C7923C2AC9C1FC29AB71BC272CA17C28B
:1020000018D513C273D70FC29DD10BC261C307C2CB
:10201000C0AC03C23D1BFFC192CBF6C17F6AEEC1CB
:1020200066F7E5C14772DDC1BADAD4C12130CCC14F
:102030007C72C3C1F9A0BAC164BBB1C120C1A8C13F
:10204000C4B19FC17E8C96C1B1508DC1F4FD83C1D6
:10205000E92675C1C52062C1D5E74EC1787A3BC17A
:10206000A1D627C1ADFA13C17AC7FFC05C20D7C083
:1020700016FBADC0EC5184C09F3C34C05D6DBDBF4C
:10208000A54E00BE67D59F3FA323294098DD814020
:102090000DE0AF40A9A4DE40091B0741DF4F1F41FF
:1020A000A1F83741DA1B51418FC26A41AD7A8241B2
:1020B000D9DF8F411E969D41A9A4AB410C13BA41B3
:1020C000E2E9C8419C33D8411CFCE741EC51F8419E
:1020D000EBA2044246760D4207B01642426020420F
:1020E000DF2086C2F5DB84C25D8D83C2813582C26A
:1020F000FED480C25FD87EC217F77BC2DC0679C2ED
:10210000660876C285FC72C2A3E36FC25DBE6CC274
:10211000508D69C2E55066C2860963C29AB75FC234
:102120008C5B5CC2A8F558C23F8655C26A0D52C28C
:10213000AC8B4EC206014BC2C66D47C206D243C22B
:10214000FA2D40C2A3813CC236CD38C2CB1035C275
:102150007E4C31C234802DC208AC29C2F9CF25C2D1
:1021600022EC21C283001EC2E70C1AC2681116C2FB
:10217000070E12C28F020EC2E6EE09C226D305C2B6
:102180001BAF01C21F05FBC1099BF2C18A1FEAC137
:102190003A92E1C1E5F2D8C15541D0C1B97CC7C17D
:1021A000DDA4BEC124B9B5C158B9ACC1A9A4A3C1AD
:1021B000AD7A9AC1933A91C1BDE387C185EB7CC1E9
:1021C000D3DE69C127A056C1492E43C1C2862FC1A3
:1021D00087A71BC1F38E07C12575E6C00E4FBDC092
:1021E00087A793C007F052C063EEFABFB1501BBF80
:1021F0000612443F3A230A40029A64409F3CA040A2
:102200004BEACE404E62FE401058174107F02F4176
:10221000D20049413A926241ACAD7C417DAE8B41E6
:1022200004569941C353A7414FAFB541D870C4413B
:102230009CA2D341DF4FE3415986F341362B024242
:10224000E2E90A42440B1442B89E1D42760F88C24E
:1022500090C086C2316885C2CF0684C2EE9C82C21D
:102260000F2B81C205637FC296617CC2895279C2FD
:10227000603676C2D30D73C265D96FC2B4996CC291
:102280000E4F69C210FA65C2EE9A62C213325FC283
:10229000E6BF5BC29C4458C269C054C29C3351C261
:1022A0006A9E4DC2EC004AC2575B46C2C6AD42C2EE
:1022B0006CF83EC2303B3BC2607637C2E2A933C203
:1022C000D0D52FC22AFA2BC2F01628C23D2C24C228
:1022D000DB3920C2E63F1CC2423E18C20B3514C295
:1022E000F12310C2F50A0CC2FCE907C206C103C201
:1022F000BE1FFFC1A5ACF6C18D28EEC14093E5C15C
:1023000057ECDCC16833D4C10A68CBC1A089C2C113
:10231000F697B9C1A392B0C1A178A7C1BA499EC12D
:102320001F0595C165AA8BC1863882C1355E71C112
:10233000371A5EC105A34AC166F736C14D1523C1E0
:1023400044FA0EC15249F5C06822CCC0B37BA2C08A
:10235000ED9E70C0EC2F1BC0933A89BFF54A993EA1
:10236000075FD83FCE884640FF21914002BCBF4066
:10237000431CEF4087A70F41EC2F28411B2F414101
:1023800043AD5A4196B27441A9A48741423E95415A
:102390003D2CA341F775B141D723C041143FCF4134
:1023A000BDD2DE4122ECEE41D49AFF41BB78084217
:1023B000968311426AFC1A4278FC89C2F8A288C24C
:1023C000344087C2BCD485C2F96084C288E582C229
:1023D000B76281C2F9B17FC283917CC28F6479C236
:1023E000BA2B76C2BBE772C2E2986FC2B13F6CC231
:1023F000ACDC68C2077065C244FA61C27F7B5EC212
:102400001FF45AC25A6457C264CC53C2712C50C2D2
:10241000B6844CC232D548C21B1E45C28A5F41C237
:102420007F993DC230CC39C29AF735C2A61B32C261
:1024300086382EC2224E2AC2785C26C26E6322C221
:1024400020631EC2715B1AC24A4C16C28E3512C27C
:102450003F170EC241F109C261C305C2848D01C29A
:10246000ED9EFAC16F12F2C12575E9C1A8C6E0C19F
:102470005906D8C13934CFC1764FC6C1A857BDC19E
:10248000984CB4C1772DABC1A7F9A1C18AB098C14E
:10249000B7518FC129DC85C1ED9E78C1CA5465C191
:1024A00017D951C1F6283EC196432AC1182616C134
:1024B00070CE01C12575DAC042CFB0C07AA586C002
:1024C00026E437C0F5B9C2BF88851ABE00919E3F89
:1024D000F0852940009182402B18B1404E62E040C7
:1024E000D93D0841E9B720411EA73941D7125341D0
:1024F00047036D4155C18341D34D9141432D9F41C8
:102500009B66AD41A301BC41C807CB41B083DA4112
:102510000C82EA419D11FB411922064210180F421C
:1025200052781842FDE78BC220838AC24D1589C2BA
:10253000079F87C2DF2086C2579B84C2CC0E83C20E
:10254000C07B81C2D0C47FC274867CC2D33C79C2B6
:10255000A7E875C2588A72C234226FC2BEB06BC27D
:10256000603668C24DB364C2F02761C246945DC252
:10257000D5F859C29B5556C2CEAA52C2A1F84EC236
:10258000143F4BC2777E47C2AEB643C2D5E73FC2C7
:1025900006123CC23F3538C2835134C2CF6630C2C6
:1025A0003F752CC29F7C28C2087D24C2607620C261
:1025B0008D681CC2A95318C24C3714C2A91310C28B
:1025C0008DE80BC2C3B507C24A7B03C2AA71FEC124
:1025D000C6DCF5C18037EDC13B81E4C1F5B9DBC193
:1025E000DFE0D2C1C3F5C9C103F8C0C138E7B7C144
:1025F000F8C2AEC13D8AA5C1D33C9CC1B4D992C139
:10260000766089C190A07FC1B1506CC1ABCF58C179
:10261000711B45C1613231C106121DC1BBB808C171
:102620004547E8C090A0BEC06C7894C03A9253C0B1
:102630000E2DFABF8FC215BF2DB24D3F68910D40D0
:10264000F90F694022FDA2409C33D240A01A0141FB
:1026500094871941A1673241BEC14B41569F6541E4
:1026600081048041B6848D416D569B413480A941DF
:10267000D509B84150FCC641E561D641DC46E6418A
:1026800058B9F64146E50342E3C70C4234111642FD
:10269000F9D18DC2EC608CC245E78AC2956589C2CA
:1026A0006ADC87C24A4C86C28EB584C2AE1883C229
:1026B000F77581C2719B7FC283407CC2A6DB78C262
:1026C0005D6D75C2F7F571C2DD756EC277ED6AC2D8
:1026D000E05C67C281C463C28F2460C23C7D5CC27F
:1026E000A5CE58C2E21855C2435C51C2AE984DC245
:1026F00070CE49C271FD45C2AF2542C25F473EC29E
:1027000082623AC2FD7636C2D08432C2FB8B2EC2C0
:10271000988C2AC2598626C2587922C295651EC253
:10272000C14A1AC2F62816C2000012C2DFCF0DC27B
:10273000459809C2175905C2541201C25F87F9C1F1
:102740001DDAF0C1781CE8C1D34DDFC12F6ED6C1B0
:10275000857CCDC10979C4C18262BBC1EF38B2C1E9
:102760004AFBA8C15FA99FC15B4296C139C58CC114
:10277000C43183C1840D73C12B875FC170CE4BC13F
:10278000B1E137C177BE23C120630FC19A99F5C06B
:1027900013F2CBC0C1CAA1C0CD3B6EC0EFC917C0F8
:1027A000956580BFF8C2C43EDF4FE53F4A0C4E40FE
:1027B000E86A95408A8EC440E17AF440B29D1241A5
:1027C000696F2B41F5B944411F855E4151DA78416B
:1027D00019E28941E9A6974127C2A541993BB44135
:1027E000A61BC3418B6CD2418C39E2410091F2416E
:1027F000A3C1014220920A4259C613425EBA8FC257
:10280000363C8EC2EAB58CC224288BC25B9389C247
:1028100010F887C2A15686C283AF84C2050383C263
:10282000685181C211367FC21AC07BC26F4178C223
:102830005EBA74C2512B71C295946DC260F669C2C2
:10284000E55066C25AA462C20DF15EC2FD365BC29B
:10285000467657C21BAF53C27CE14FC29F0D4CC29C
:102860004D3348C2D75244C2086C40C2FA7E3CC2C3
:10287000AC8B38C2209234C2209230C2E18B2CC281
:10288000147F28C2EE6B24C2065220C290311CC2B3
:102890003D0A18C20FDC13C2E9A60FC27F6A0BC241
:1028A000CF2607C2A6DB02C2D111FDC1C65CF4C1AE
:1028B0008D97EBC1F2C1E2C18CDBD9C1BDE3D0C1C0
:1028C0001DDAC7C10EBEBEC15C8FB5C1014DACC122
:1028D00094F6A2C1448B99C1720A90C1827386C1D9
:1028E000448B79C197FF65C15B4252C183513EC1A0
:1028F0006B2B2AC19FCD15C1A83501C1F8C2D8C024
:10290000A69BAEC041F183C0D57831C051DAB3BFC8
:10291000075F98BC0C93B13FA9133440AA6088406C
:102920001973B740F54AE74044FA0B41E0BE244131
:1029300044FA3D41A2B45741FDF671419565864187
:102940004F1E9441082CA2415396B0412C65BF41C3
:1029500068A2CE417F59DE418D97EE41C06CFF41A8
:1029600011760842BC9611423BA191C2E41490C278
:1029700020818EC266E68CC253458BC2429E89C2BC
:10298000AAF187C2E63F86C2378984C2EDCD82C2F2
:10299000560E81C218957EC2A2057BC2B26E77C266
:1029A00062D073C21C2B70C2FA7E6CC24ACC68C261
:1029B000261365C2C35361C2228E5DC275C259C25D
:1029C000BEF055C2171952C27F3B4EC210584AC2C0
:1029D000B26E46C27D7F42C2588A3EC25C8F3AC206
:1029E000568E36C25F8732C2447A2EC21E672AC212
:1029F0009F4D26C2E02D22C2AE071EC209DB19C2BE
:102A0000A1A715C2776D11C2572C0DC240E408C2B0
:102A1000CA9404C2F43D00C214BFF7C17CF2EEC1F7
:102A2000EA15E6C1C128DDC1CE2AD4C1711BCBC1D4
:102A3000DBF9C1C1D6C5B8C1C57EAFC1D723A6C118
:102A4000A2B49CC1213093C1B59589C186C97FC10B
:102A500086386CC1607658C1D88144C1795830C17C
:102A600038F81BC19E5E07C14013E5C0EEEBBAC04B
:102A70002D4390C096214AC0C442E5BFB29DCFBE4F
:102A800020D27F3F5F291B4030BB7740A4DFAA40A4
:102A9000A9A4DA40789C0541CA541E4141823741BD
:102AA0000E2D5141645D6B41BF0E834136BC904198
:102AB00071BD9E413119AD4110D8BB411203CB41CC
:102AC0007AA5DA4130CCEA415986FB41337306429C
:102AD000A3810F42668693C2DBEA91C28D4890C201
:102AE0001AA08EC2F9F18CC2913E8BC23F8689C278
:102AF0005FC987C2240886C2DE4284C2C17982C20D
:102B0000F4AC80C258B97DC220127AC25A6476C22F
:102B100055B072C246F66EC22B366BC2557067C294
:102B2000C3A463C2A9D35FC2EEFC5BC2AA2058C291
:102B3000FA3E54C2C25750C21C6B4CC2097948C2FB
:102B40006F8144C24D8440C2A3813CC2587938C2CF
:102B5000516B34C28D5730C2F43D2CC26A1E28C25C
:102B6000BBF823C201CD1FC2EE9A1BC2826217C2FC
:102B70006E2313C2B2DD0EC21A910AC2713D06C2A3
:102B80009CE201C29D00FBC1DA2CF2C18649E9C179
:102B90000456E0C1B751D7C19F3CCEC1B515C5C1E0
:102BA00092DCBBC1CB90B2C19031A9C10EBE9FC116
:102BB000DD3596C12B988CC126E482C1F93172C1F2
:102BC000516B5EC1B0724AC10B4636C1EBE221C106
:102BD000AE470DC1EBE2F0C099BBC6C0D7129CC096
:102BE0001DC961C0764F0AC099BB46BFD7A3203F1D
:102BF00080480340BEC15F405BD39E40FD87CE400E
:102C00009A08FF40273118418351314191ED4A41E3
:102C10001B0D6541C7BA7F4134808D418E759B4144
:102C2000FEC3A941EB73B841ED8DC741151DD741D6
:102C3000AC2DE741A5CEF741E988044274860D42E8
:102C4000E26995C2CCBD93C2FB0B92C2E45490C220
:102C5000EF988EC286D88CC2F8138BC2854B89C27E
:102C6000637F87C2C5AF85C2EEDC83C2E90682C23C
:102C7000E02D80C2F1A37CC281E678C2882375C2B0
:102C8000575B71C2D38D6DC230BB69C288E365C228
:102C9000C20662C212255EC25D3E5AC2A35256C22D
:102CA000E56152C2226C4EC25B714AC2767146C265
:102CB000716C42C234623EC2A3523AC2BF3D36C2B8
:102CC000542332C27B032EC2E7DD29C27CB225C267
:102CD0003B8121C2EF491DC2640C19C29AC814C2BB
:102CE0005D7E10C25D2D0CC29BD507C2C97603C2A2
:102CF0009621FEC1A846F5C1925CECC18262E3C197
:102D00007958DAC1713DD1C13411C8C126D3BEC1D1
:102D1000AA82B5C1211FACC1BBA7A2C1DA1B99C150
:102D2000E17A8FC1CAC385C185EB77C15C2064C1DC
:102D3000A32350C1B6F33BC1228E27C1D8F012C1E4
:102D4000CA32FCC0D509D2C0B762A7C0226C78C015
:102D5000ADFA20C029CB90BF431C8B3E19E2D83F6F
:102D60005BD348400E4F93404DF3C2401361F34094
:102D7000BD52124138672B415AF54441BC055F41B1
:102D8000CBA17941E2698A412C5498411E96A64113
:102D9000E937B5412742C44148BFD34164BBE34151
:102DA0000545F4417AB602425AA40B429F4B97C2A2
:102DB0009F8D95C20FCB93C25A0492C2CE3990C256
:102DC000AC6B8EC2519A8CC2C9C58AC263EE88C2EE
:102DD0002C1487C24C3785C2DC5783C2F77581C279
:102DE0003A237FC2EA557BC2FE8377C291AD73C29C
:102DF000A3D26FC233F36BC25C0F68C21E2764C2DA
:102E00005E3A60C237495CC28F5358C2655954C29A
:102E1000A05A50C23F574CC2284F48C25B4244C2DE
:102E2000A43040C2021A3CC242FE37C264DD33C243
:102E30004CB72FC2C78B2BC2BA5A27C2262423C233
:102E4000A1E71EC246A51AC2C65C16C2070E12C270
:102E5000D5B80DC2FB5C09C244FA04C2979000C207
:102E60007D3FF8C1A54EEFC1704EE6C1773EDDC192
:102E7000E71DD4C18BECCAC193A9C1C19554B8C197
:102E80008BECAEC14171A5C1E5E19BC1713D92C121
:102E90007B8388C195657DC1819569C1189555C1B0
:102EA0007C6141C109F92CC1B45918C1068103C123
:102EB00045D8DCC05530B2C0530587C062A136C0CA
:102EC0003D2CBCBF96438BBDC442AD3F07F03240A2
:102ED00048508840C9E5B7402D43E840F5B90C415A
:102EE000F8C2254167443F410B465941B7D1734170
:102EF000D5788741AE589541288FA341D723B24159
:102F0000211FC141788BD0418874E0413EE8F041F7
:102F1000B3FB0042EEDA09426B2B99C2E85997C223
:102F2000608595C2FAAD93C2F8D391C280F78FC283
:102F3000AE188EC2B5378CC2A2548AC2836F88C2C3
:102F4000668886C2639F84C26EB482C2A1C780C2F3
:102F5000F9B17DC2E5D079C23DEC75C2CA0372C237
:102F60008D176EC2A1276AC2EB3366C2503C62C2A3
:102F7000D2405EC255415AC2D93D56C22B3652C2CA
:102F8000652A4EC2371A4AC2A20546C2A5EC41C202
:102F9000F3CE3DC2A5AC39C26D8535C2315931C2BF
:102FA000F0272DC25BF128C274B524C2EB7320C296
:102FB000C02C1CC2BEDF17C2988C13C233330FC2A1
:102FC00075D30AC20E6D06C2CCFF01C2F016FBC15A
:102FD000BE1FF2C16519E9C1B003E0C1CCDDD6C1A5
:102FE00052A7CDC1705FC4C1F005BBC1029AB1C187
:102FF000D41AA8C1C8879EC10DE094C13A238BC1E1
:10300000DF4F81C129CB6EC13FC65AC15C8F46C11B
:10301000742432C112831DC1C1A808C11826E7C09B
:10302000287EBCC0F85391C096434BC04D84E5BF89
:10303000E78CC8BE46B6833F7B141E40B8AF7B40CA
:10304000705FAD4071ACDD40956507415A64204129
:10305000E8D9394170CE5341F54A6E41DAAC84412A
:1030600012839241B2AEA0411737AF41A924BE41AD
:103070006F81CD41AE58DD411DB8ED41B8AFFE4185
:10308000AD29084237099BC2752299C2783A97C286
:10309000415195C2DC6693C24A7B91C2988E8FC221
:1030A000AAA08DC290B18BC23BC189C2B8CF87C2E2
:1030B000EEDC85C2DCE883C282F381C28CF97FC278
:1030C0006C097CC26D1678C2902074C2A12770C2B0
:1030D000BA2B6CC2A52C68C24B2A64C28F2460C272
:1030E000711B5CC2BF0E58C25DFE53C230EA4FC2B4
:1030F00020D24BC211B647C2D09543C25B713FC2CA
:1031000080483BC2091B37C2F6E832C2F9B12EC271
:1031100011762AC20B3526C298EE21C2B7A21DC273
:10312000345119C2DBF914C2789C10C2D5380CC2D4
:10313000BFCE07C2015E03C2CDCCFDC176CFF4C1C4
:1031400061C3EBC1F0A7E2C1B97CD9C15541D0C17F
:10315000F1F4C6C1F096BDC1E926B4C10BA4AAC161
:10316000840DA1C1B76297C1D1A28DC101CD83C128
:1031700083C073C1E9B75FC1BF7D4BC1910F37C138
:10318000226C22C12E900DC14DF3F0C08C4AC6C0F6
:10319000FF219BC08FE45EC00A6806C0E10B33BF0D
:1031A000226C383FFE430A40EFC96740705FA3407E
:1031B000849ED34004560241F54A1B4174B5344104
:1031C000499D4E41E10B69415305824189D28F41AE
:1031D0001FF49D410D71AC41EC51BB4127A0CA4188
:1031E000CF66DA4168B3EA418195FB41F98F064227
:1031F000D0E49CC2C2E69AC2C7E998C291ED96C2D9
:10320000DEF194C27AF692C23DFB90C2F3FF8EC209
:1032100081048DC2C1088BC2A50C89C2F90F87C277
:10322000B01285C2BC1483C2F71581C2A52C7EC220
:10323000852B7AC23E2876C2B72272C2EE1A6EC2BF
:1032400097106AC2B00366C2EBF361C248E15DC287
:1032500078CB59C296B255C2539651C27A764DC2B6
:103260000C5349C2D42B45C2B80041C283D13CC2E1
:10327000019E38C2326634C2C72930C28DE82BC2E3
:1032800082A227C2595723C2F7061FC227B11AC20A
:10329000B55516C26EF411C2018D0DC2701F09C260
:1032A00051AB04C28A3000C2985DF7C1C74BEEC172
:1032B000022BE5C1ADFADBC15EBAD2C17969C9C1E1
:1032C0005F07C0C14093B6C1B30CADC1E572A3C1E5
:1032D00005C599C1410290C1FC2986C1F77578C125
:1032E000446964C1D42B50C130BB3BC14D1527C1CB
:1032F000B53712C1E63FFAC02497CFC0986EA4C07C
:10330000068171C0B30C19C0D6C57DBF9A08DB3EDB
:103310004DF3EE3FEEEB5440C9E59940F016CA403C
:10332000E414FB4060761641A1D62F41FFB249411B
:103330001214644181047F4111478D413B5F9B41E1
:10334000B7D1A94181A6B84138E7C741B89ED74156
:10335000B4D9E741BBA7F841840D054201BE9EC226
:1033600066A69CC2BD929AC2348298C2397496C233
:103370003E6894C2F45D92C2E45490C2CD4C8EC2B9
:103380006D458CC2913E8AC2E93788C2683186C2D7
:10339000CE2A84C20B2482C2E01C80C27F2A7CC257
:1033A000021A78C2170874C2A2F46FC23BDF6BC264
:1033B000E3C767C249AE63C254925FC2D0735BC2B7
:1033C000895257C2492E53C2F7064FC25DDC4AC22A
:1033D00063AE46C2D37C42C25F473EC2220E3AC2AF
:1033E00097D035C2F38E31C2B4482DC2D9FD28C260
:1033F00014AE24C24B5920C248FF1BC2D99F17C22A
:10340000C73A13C2DFCF0EC2D35E0AC287E705C236
:10341000AD6901C2EFC9F9C196B2F0C17E8CE7C1B6
:103420003F57DEC16F12D5C13CBDCBC10A57C2C1E7
:103430003BDFB8C1FE54AFC1E9B7A5C1F7069CC1D7
:10344000894192C1CF6688C185EB7CC1BADA68C177
:103450009A9954C1182640C1287E2BC1ED9E16C1F1
:10346000598601C14E62D8C0933AADC0508D81C01B
:10347000DAAC2AC09C33A2BF2CD41A3E2F6ECB3FAD
:10348000FC184340AAF19040B515C140BC05F2407C
:103490009BE61141083D2B41BF0E4541F1635F4161
:1034A0000B467A4142E08A41D2EF98414558A74104
:1034B0003422B6413956C54197FFD441652AE541CA
:1034C000FEE5F541E5A103427B94A0C2C5609EC222
:1034D00088349CC2560E9AC20EED97C2D2CF95C2C6
:1034E000DDB593C2AB9E91C2BA898FC287768DC279
:1034F000D0648BC22C5489C2674487C23F3585C2D1
:10350000742683C2DC1781C2A3127EC225F579C25C
:103510000AD775C203B871C2F6976DC2607669C2E8
:10352000265365C22F2E61C211075DC298DD58C2B5
:10353000AAB154C2128350C29D514CC2151D48C23B
:103540002CE543C2E2A93FC2E86A3BC20A2837C25F
:103550002DE132C21E962EC2A8462AC27CF225C296
:103560007F9921C27F3B1DC245D818C2836F14C208
:10357000200110C2E78C0BC26F1207C29D9102C2DC
:103580004614FCC19AF7F2C198CCE9C1A392E0C1FC
:103590001D49D7C1D2EFCDC1BC85C4C13D0ABBC155
:1035A000B97CB1C15DDCA7C18D289EC1766094C194
:1035B00047838AC12E9080C1E10B6DC17AC758C183
:1035C000835144C11EA72FC13FC61AC108AC05C113
:1035D000DAACE0C01F85B5C07FD989C0234A3BC0A3
:1035E0004A7BC3BF8941E0BDA1F8A93F304C3240BE
:1035F0006F818840D49AB840EE7CE9406B9A0D41C7
:10360000A7E8264121B0404144FA5A41ABCF754169
:10361000E79D884146A59641EA04A54167C4B341A8
:10362000F4ECC2410389D24112A5E241424FF34179
:10363000B34C0242F067A2C23215A0C256CE9DC260
:1036400000919BC2645B99C2302C97C2270295C23D
:1036500085DC92C26BBA90C2579B8EC2B87E8CC278
:1036600019648AC2294B88C2753386C2D31C84C2AE
:10367000E90682C2EBE27FC2BBB87BC2BF8E77C2D3
:103680008F6473C2F5396FC28A0E6BC2FFE166C2E6
:1036900039B462C2D0845EC28F535AC2272056C248
:1036A0007FEA51C261B24DC2807749C2A73945C293
:1036B000A1F840C239B43CC23D6C38C2762034C255
:1036C000B1D02FC2B97C2BC25A2427C25FC722C2F5
:1036D00095651EC2ABFE19C26F9215C2C52011C2FC
:1036E0005FA90CC2EE2B08C23EA803C2363CFEC145
:1036F0006B1AF5C1B3EAEBC13DACE2C19E5ED9C124
:103700003B01D0C14093C6C14614BDC17B83B3C148
:1037100042E0A9C1C729A0C1075F96C1977F8CC1AC
:103720003D8A82C1B9FC70C10BB55CC1363C48C151
:10373000C58F33C143AD1EC13A9209C19A77E8C023
:103740000E4FBDC012A591C0EBE24AC03CBDE2BF26
:10375000B459B5BE158C8A3FCE882240BC968040B5
:103760007AA5B0404A7BE140A3920941AED82241FC
:1037700024973C41A1D6564190A07141CC7F86410F
:10378000CC7F9441D6D6A241E78CB141CEAAC041AC
:10379000C73AD041E948E04154E3F0419F0D01426E
:1037A000F637A4C2C4C2A1C2145F9FC21D099DC244
:1037B00035BE9AC2507C98C2CB4196C26A0D94C263
:1037C0001BDE91C219B38FC2928B8DC211678BC25F
:1037D000F74489C2EA2487C28E0685C26CE982C298
:1037E0005DCD80C20B647DC27D2E79C272F974C238
:1037F0009CC470C2AB8F6CC2375A68C2F12364C2DA
:103800008BEC5FC2B6B35BC23E7957C2EE3C53C28B
:103810005DFE4EC256BD4AC2C17946C24D3342C258
:10382000C7E93DC2E09C39C2644C35C238F830C2A9
:10383000F39F2CC2964328C2B7E223C23C7D1FC22D
:10384000F2121BC26EA316C2982E12C239B40DC258
:10385000EB3309C291AD04C2DF2000C23D1BF7C1AA
:10386000CFE6EDC10BA4E4C15452DBC141F1D1C19B
:10387000CC7FC8C156FDBEC17969B5C161C3ABC1BA
:103880003D0AA2C13C3D98C18C5B8EC1266484C1B7
:10389000DAAC74C14E6260C104E74BC11D3837C158
:1038A000F85322C1B5370DC1BEC1EFC05F98C4C087
:1038B00035EF98C01C7C59C072F9FFBF0B4615BF8D
:1038C000A8575A3FEFC91340D95F7240D734A94077
:1038D0000000DA4070CE05411B0D1F41F8C238418F
:1038E00009F9524152B86D4188858441917E9241D7
:1038F00007CEA0414A7BAF415C8FBE414614CE410A
:103900008115DE4196A1EE41E9C8FF41F103A6C24F
:103910007368A3C27AE5A0C267759EC246149CC2B2
:1039200014BF99C2C37397C26F3095C2DEF392C2BF
:10393000EEBC90C2A68A8EC2505C8CC24E318AC246
:10394000100988C220E385C207BF83C2789C81C268
:1039500046F67EC28EB57AC2117676C2803772C2C2
:1039600058F96DC230BB69C2D37C65C2D93D61C212
:10397000D9FD5CC29FBC58C2C17954C2253550C222
:1039800063EE4BC260A547C2B45943C2290B3FC284
:10399000A7B93AC2C36436C24A0C32C221B02DC2A2
:1039A000DF4F29C26BEB24C2758220C2E4141CC213
:1039B00034A217C27F2A13C243AD0EC24B2A0AC2D9
:1039C00062A105C2541201C272F9F8C1ECC0EFC184
:1039D000107AE6C17424DDC1B1BFD3C1F54ACAC1B2
:1039E0006DC5C0C17D2EB7C1BC85ADC1EFC9A3C136
:1039F000ADFA99C1F01690C1B21D86C1AC1C78C158
:103A000042CF63C11A514FC127A03AC15EBA25C146
:103A1000E09C10C1728AF6C01361CBC0E9B79FC0A9
:103A2000CB1067C053960DC036CD4BBF2AA9233F9C
:103A3000D7120640029A6440E948A2406C09D3407C
:103A4000D34D024188851B410534354113614F41F7
:103A500087166A411BAF8241CBA1904116EA9E4175
:103A6000918FAD416B9ABC411815CC41DB0ADC410A
:103A70006C89EC4162A1FD411CCBA7C2F704A5C231
:103A80003460A2C27BD49FC2295C9DC240F39AC21B
:103A9000D69698C29C4496C2C7FA93C203B891C204
:103AA000237B8FC23A438DC2830F8BC248DF88C20B
:103AB00006B286C2388784C26A5E82C2593780C223
:103AC00020237CC2B4D977C2B79173C2DB4A6FC2DC
:103AD0009C046BC277BE66C2387862C25B315EC23C
:103AE000ADE959C2C5A055C26D5651C23D0A4DC27D
:103AF00002BC48C2856B44C25F1840C25BC23BC275
:103B0000446937C2E70C33C2F4AC2EC21D492AC245
:103B100048E125C20B7521C24D041DC2D98E18C2C1
:103B2000461414C261940FC2F30E0BC2B08306C2D6
:103B300047F201C23FB5FAC16C78F1C1E02DE8C18E
:103B4000CAD4DEC18B6CD5C188F4CBC1226CC2C192
:103B500089D2B8C11E27AFC11069A5C18D979BC17D
:103B6000C4B191C1AEB687C15E4B7BC17FFB66C15C
:103B7000E17A52C14BC83DC1DFE028C127C213C161
:103B80005BD3FCC0FCA9D1C0D200A6C040A473C0C6
:103B9000B22E1AC05B427EBF6519E23ECAC3F23F35
:103BA00051DA5740B1E19B403199CC40F31FFE40C0
:103BB0008941184110E93141560E4C41C7BA66415E
:103BC0001CFC804110E98E41022B9D411DC9AB4177
:103BD000C7CBBA41083DCA412428DA41A09AEA413C
:103BE000A9A4FB417E8CA9C2BC96A6C277CDA3C274
:103BF000A924A1C26E949EC280179CC2E2A999C258
:103C0000C14897C2DEF194C288A392C2505C90C2B0
:103C1000161B8EC2EDDE8BC204A789C2BD7287C29D
:103C20007C4185C2BD1283C225E680C294767DC2E6
:103C3000A32379C2D7D274C2B08370C2C3356CC219
:103C400058E867C23D9B63C2074E5FC24F005BC22C
:103C5000AAB156C2E56152C297104EC28BBD49C28D
:103C6000736845C2001141C2E3B63CC2E85938C28C
:103C7000C1F933C239962FC21B2F2BC219C426C2D9
:103C8000E45422C248E11DC2F66819C2D4EB14C242
:103C9000796910C2B1E10BC22C5407C2B8C002C28C
:103CA000074EFCC1840DF3C17DBFE9C1EB62E0C1E9
:103CB0009AF7D6C1857CCDC176F1C3C13255BAC160
:103CC00087A7B0C138E7A6C1A9139DC1082C93C12D
:103CD0004F2F89C1C1397EC104E769C15A6455C1FA
:103CE000B8AF40C1A8C62BC11EA716C1D34D01C194
:103CF0007671D7C04BC8ABC0D7347FC033C425C0A2
:103D0000045696BF9D11853EE86ADB3F68224C4011
:103D10005DFE9540ACADC640992AF84089411541F9
:103D200082E22E41D2004941A9A4634117D97E41C4
:103D300061548D4162909B41BB27AA410523B94143
:103D4000AC8BC8415D6DD841CAD4E84120D2F9415D
:103D5000E946ABC2C01BA8C2442BA5C21964A2C2CB
:103D600071BB9FC23D2A9DC292AB9AC2C03B98C212
:103D70001DD895C2847E93C2502D91C220E38EC27D
:103D8000ED9E8CC2B15F8AC2C32488C25DED85C23C
:103D900009B983C2458781C235AF7EC25B537AC2FF
:103DA00044FA75C26EA371C2224E6DC210FA68C287
:103DB0009BA664C25B5360C200005CC208AC57C2E1
:103DC0003F5753C23B014FC2ADA94AC2485046C2F9
:103DD000D7F441C2D6963DC2463639C2BDD234C2AE
:103DE000EE6B30C2A3012CC2A99327C2B12123C21A
:103DF0006BAB1EC2A4301AC20DB115C2712C11C218
:103E000082A20CC2F21208C28B7D03C2FEC3FDC1A6
:103E10000080F4C17D2EEBC10ECFE1C1AA60D8C1F4
:103E2000EBE2CEC13255C5C1AEB6BBC1C206B2C10E
:103E30006744A8C1006F9EC1888594C15F878AC10D
:103E4000827380C1D1916CC11B0D58C1D65643C13C
:103E5000226C2EC15E4B19C1AAF103C152B8DCC05D
:103E6000280FB1C0EBE284C0D65630C06688ABBF25
:103E7000A54EC03D091BC63FA4704140BE9F904067
:103E8000DC46C14099BBF240B6841241F31F2C417D
:103E9000B53746412CD4604169007C4154E38B41E5
:103EA000021A9A416BABA841F39FB7410601C74183
:103EB000E8D9D6418037E7415F29F84179F8ACC2AB
:103EC0009D91A9C24C77A6C2B190A3C24FCFA0C208
:103ED000092A9EC2869A9BC2781C99C27EAC96C261
:103EE000244894C25DED91C2BA9A8FC2E64E8DC24B
:103EF000C1088BC294C788C27F8A86C2E55084C23B
:103F0000511A82C264CC7FC23E687BC27A0777C2F4
:103F10005FA972C26A4D6EC219F369C2B49965C2D3
:103F2000EC4061C258E85CC2918F58C22B3654C233
:103F3000C0DB4FC21A804BC2D12247C296C342C2D5
:103F400034623EC242FE39C28D9735C2C62D31C29F
:103F5000B8C02CC2F94F28C271DB23C2B7621FC29E
:103F600095E51AC2D76316C215DD11C234510DC2D0
:103F7000CCBF08C2A72804C2BC16FFC1ABCFF5C195
:103F8000167BECC1C818E3C1BBA7D9C18727D0C134
:103F90008D97C6C1C9F6BCC1D044B3C19D80A9C12B
:103FA0005FA99FC177BE95C1E0BE8BC1C7A981C182
:103FB000E7FB6EC125755AC13CBD45C1B7D130C1C3
:103FC000B8AF1BC1325506C1917EE1C067D5B5C0FF
:103FD0002AA989C09BE639C0C4B1BEBFF93166BD0C
:103FE00073D7B23F05C5374033C48B40C364BC4070
:103FF0004ED1ED40780B104162A12941FFB24341FF
:1040000052495E41C66D7941B5958A41AEC7984126
:10401000C353A7415B42B641AC9CC541916DD541AC
:104020005BC2E54130AAF641E09EAEC24DF5AAC2A0
:10403000E6AEA7C231A8A4C22FCEA1C225159FC249
:1040400074759CC2ADE999C2FA6D97C270FF94C2B3
:10405000C09B92C22D4190C23CEE8DC2BEA18BC2CC
:10406000BA5A89C25F1887C2F5D984C2ED9E82C24E
:10407000A86680C296617CC2DBF977C2329573C2B2
:1040800019336FC20CD36AC2547466C2871662C2F7
:104090003EB95DC2F55B59C25DFE54C20DA050C26F
:1040A0009D404CC2BEDF47C23C7D43C2AE183FC2FA
:1040B000AAB13AC2174836C2A6DB31C2086C2DC27B
:1040C000D5F828C2F28124C2110720C2E3871BC29F
:1040D000190417C27F7B12C2C6ED0DC2BA5A09C2BB
:1040E000D8C104C2202300C250FCF6C112A5EDC104
:1040F0001A40E4C1CDCCDAC1584AD1C11DB8C7C1FC
:104100008115BEC17C61B4C1A69BAAC1F8C2A0C181
:10411000A1D696C19BD58CC148BF82C1462571C12D
:10412000E09C5CC154E347C12BF632C15BD31DC197
:104130006C7808C133C4E5C0091BBAC09EEF8DC0BE
:10414000257542C067D5CFBF38F842BE9A99A13FC6
:10415000E71D2F40BA6B87408E06B8408B6CE94054
:10416000FED40D41666627411973414147035C4106
:104170002D217741BA6B89419A999741F920A6413F
:10418000090AB541355EC4415828D4415A75E44105
:104190002C54F541E336B0C24743ACC2E6CEA8C2C8
:1041A00017A8A5C2F7B5A2C2FCE99FC2D43A9DC226
:1041B00041A29AC2991B98C2A3A395C2B53793C2D4
:1041C000D0D590C25D7C8EC2092A8CC2BFDD89C267
:1041D000949687C2D05385C2BC1483C2C8D880C20B
:1041E000143F7DC2E5D078C2666674C2C5FE6FC258
:1041F0009A996BC2113667C2C3D362C247725EC25C
:1042000000115AC29EAF55C2B94D51C202EB4CC209
:10421000F78648C27C2144C210BA3FC262503BC2FA
:104220005AE436C2747532C27B032EC2228E29C272
:10423000321525C2459820C23F171CC2B79117C23C
:104240007A0713C21D780EC288E309C2524905C21B
:104250002AA900C2BC05F8C13DACEEC10545E5C1C7
:1042600076CFDBC1F54AD2C1E3B6C8C16F12BFC178
:10427000FB5CB5C18195ABC164BBA1C1D3CD97C176
:10428000C7CB8DC16EB483C1840D73C17B835EC106
:10429000B4C849C1BADA34C117B71FC1575B0AC1E4
:1042A0003789E9C00DE0BDC0A2B491C075024AC013
:1042B00094F6DEBF091B9EBE0A68923FEE7C274043
:1042C000539683400E2DB4407E8CE54048E10B416F
:1042D000006F254132773F410C025A41371A754130
:1042E0002C658841288F96416F12A541C9F6B341CC
:1042F000A245C341D509D341DF4FE341E926F4414B
:10430000DABBB1C20A77ADC2EBD3A9C2B98DA6C2DE
:104310009C84A3C2CFA6A0C26CE99DC2F7449BC2F5
:1043200061B498C2D03396C276C093C2035891C28A
:10433000BBF88EC22DA18CC23B508AC2D00488C269
:1043400028BE85C27F7B83C2503C81C200007EC2F2
:104350004A8C79C2921C75C221B070C259466CC297
:104360009EDE67C26C7863C226135FC263AE5AC218
:10437000BA4956C2C3E451C2147F4DC2451849C25E
:1043800021B044C23F4640C237DA3BC2EE6B37C26F
:10439000E1FA32C2F7862EC2C50F2AC2FE9425C2A8
:1043A0006D1621C2A9931CC2980C18C2EC8013C2CE
:1043B0003BF00EC2515A0AC2C5BE05C27E1D01C2E3
:1043C00022ECF8C19790EFC15227E6C1ECAFDCC1F7
:1043D000C729D3C11294C9C1FAEDBFC11737B6C1FD
:1043E000636EACC10C93A2C140A498C12DA18EC133
:1043F000038984C10BB574C15F2960C15D6D4BC178
:10440000917E36C11D5A21C18BFD0BC19FCDECC0E1
:104410007424C1C009F994C0E78C50C0BF0EECBF32
:1044200005A3D2BE363C853F76E02040D044804094
:10443000A1D6B0402731E240BE300A4130BB234113
:1044400048BF3D410B465841E2587341A381874123
:104450008DA895412428A4419A08B341F252C24143
:10446000D111D2412052E2413422F3415F27B3C23D
:104470006B8BAEC244BAAAC25356A7C2F637A4C2C7
:10448000094AA1C2BE7F9EC2CBD09BC2663799C2E9
:104490004FAF96C2673594C245C791C2EB628FC2D7
:1044A000CF068DC2C4B18AC2AA6288C2A11886C2D0
:1044B000F2D283C2E59081C20BA47EC2852B7AC260
:1044C0004CB775C2C24671C217D96CC2C66D68C2FC
:1044D000190464C2A69B5FC2EB335BC27ECC56C29A
:1044E000DD6452C29FFC4DC28F9349C2102945C260
:1044F00022BD40C2284F3CC2EDDE37C2086C33C239
:1045000060F62EC28B7D2AC23B0126C23B8121C2AE
:1045100022FD1CC2BC7418C2BBE713C2EA550FC20D
:10452000E0BE0AC24E2206C2008001C24FAFF9C1EE
:10453000EC51F0C104E7E6C1FA6DDDC132E6D3C14A
:104540000E4FCAC1BBA7C0C19EEFB6C1AF25ADC15A
:104550008649A3C1B45999C1D0558FC1D33C85C1F7
:10456000711B76C18A8E61C1B7D14CC1B1E137C12F
:10457000D3BC22C1D95F0DC16891EFC06DE7C3C044
:10458000A5BD97C01E1656C0BB27F7BF1214FFBEAD
:104590003D2C743F234A1B401CEB7A401904AE406B
:1045A000865ADF40F8C20841234A2241F54A3C417D
:1045B00007CE56412FDD714155C1864195E59441A5
:1045C0004E62A341483FB241BC85C1414F40D141F9
:1045D0007F7BE1410B46F2419770B4C2937AAFC240
:1045E000F47DABC221FFA7C207CEA4C2F9D1A1C2FC
:1045F000ACFC9EC2B6449CC2D7A399C25A1597C2BE
:10460000F79594C2F82292C25EBA8FC2865A8DC2C2
:104610000C028BC2DFAF88C2126386C2D41A84C276
:104620006DD681C2CE2A7FC22FAE7AC2603676C2E4
:104630005BC271C283516DC220E368C2AE7664C2B0
:10464000AC0B60C27CA15BC29A3757C2D3CD52C2B9
:1046500088634EC286F849C24A8C45C2841E41C254
:10466000E6AE3CC2223D38C2CEC833C2B7512FC2DB
:104670008DD72AC2025A26C2AED821C28F531DC27C
:1046800009CA18C2023C14C22AA90FC234110BC2B3
:10469000D07306C2B1D001C20E4FFAC107F0F0C10B
:1046A000E483E7C16C09DEC19D80D4C13EE8CAC184
:1046B000E63FC1C1C286B7C102BCADC1D3DEA3C152
:1046C0002FEE99C1ADE98FC114D085C1B84077C133
:1046D000FFB262C1F1F44DC1810439C1D3DE23C1FF
:1046E000D8810EC195D4F1C0992AC6C000009AC0E5
:1046F000789C5AC0DA1B00C0A5BD11BF13F2613F00
:10470000AEB6164061547640A2B4AB40C807DD4057
:104710008D970741AC1C2141091B3B41D49A55415F
:104720004CA670410B2486410B4694414FC0A241D8
:10473000A09AB14101DEC0411895D04130CCE04192
:104740000692F141448BB5C2013EB0C2301BACC2EF
:10475000A285A8C2EA44A5C2643DA2C2145F9FC25A
:10476000D99F9CC2EFF899C2606597C296E194C246
:10477000CE6A92C2D3FE8FC2F59B8DC2D2408BC24D
:104780003DEC88C22F9D86C2F25284C2B30C82C215
:10479000DE937FC246147BC27F9976C2B72272C273
:1047A00069AF6DC2AB3E69C214D064C2EB6260C235
:1047B000C9F65BC2298B57C2A41F53C2D0B34EC2E5
:1047C0002B474AC27FD945C2656A41C272F93CC2D1
:1047D000748638C2001134C2C8982FC2981D2BC2EB
:1047E000079F26C2E01C22C2BC961DC2640C19C2DF
:1047F000A57D14C2FCE90FC24E510BC233B306C2F1
:10480000760F02C25ECBFAC1516BF1C1F4FDE7C174
:10481000AA82DEC1A1F8D4C1705FCBC146B6C1C1C6
:1048200050FCB7C1BE30AEC1F252A4C1E5619AC11D
:10483000C65C90C18F4286C1742478C1539663C10F
:1048400073D74EC19BE639C183C024C120630FC119
:104850005396F3C029EDC7C08FC29BC03A235EC0F8
:104860009CA203C03BDF1FBF61C3533FBB27134064
:1048700083C0724010E9A940EF38DB40E6AE064144
:10488000F9312041492E3A4108AC54410BB56F41F2
:10489000C7A9854123CA93418F42A241A01AB141C1
:1048A0008C5BC041F90FD041FE43E0415906F14114
:1048B0003168B6C269CFB0C27D8EACC287E7A8C2EC
:1048C000169BA5C2F58AA2C20BA69FC27CE19CC220
:1048D0002B369AC2ED9E97C2E91795C25D9E92C291
:1048E000EC2F90C2E8CA8DC2D36D8BC2731789C2F8
:1048F000DCC686C2237B84C28F3382C23BDF7FC289
:10490000495D7BC25CE076C2BB6772C296F26DC243
:10491000348069C2F90F65C262A160C2D0335CC243
:10492000F7C657C21D5A53C229ED4EC27D7F4AC2F7
:10493000B11046C2AAA041C2CC2E3DC2E1BA38C2D3
:104940009C4434C2ACCB2FC2AB4F2BC262D026C228
:10495000844D22C2C2C61DC2E73B19C271AC14C24B
:104960005F1810C2147F0BC290E006C2503C02C216
:104970004024FBC12DC3F1C13255E8C117D9DEC1B6
:10498000704ED5C1A2B4CBC1DB0AC2C14850B8C178
:104990004D84AEC1E3A5A4C16EB49AC1E6AE90C188
:1049A000469486C17AC778C1863864C1A7794FC159
:1049B000FD873AC1E56125C1190410C145D8F4C08D
:1049C000492EC9C081049DC01EA760C0242806C00E
:1049D0005AF529BF27A0493F499D10406E347040C9
:1049E00062A1A840CCEED9409A080641728A1F41C4
:1049F000888539413B0154419A086F41895285416C
:104A0000AA719341A7E8A14148BFB04191FEBF41BF
:104A1000F2B0CF41B7E2DF4168A2F04153F6B6C22F
:104A20004429B1C2E4D4ACC2F822A9C24FCFA5C276
:104A3000E8B9A2C2E5D09FC21D099DC2165B9AC209
:104A400096C197C2A13895C264BD92C2844D90C2EE
:104A50002BE78DC2DC888BC2763189C2E6DF86C245
:104A60004D9384C2F54A82C23F0680C21D897BC233
:104A70000F0B77C2349172C2EE1A6EC287A769C259
:104A8000603665C2DCC660C279585CC2CEEA57C2E5
:104A9000567D53C2910F4FC22DA14AC2DE3146C28C
:104AA0003BC141C2BF4E3DC251DA38C2A36334C2DA
:104AB00016EA2FC2AC6D2BC2FAED26C2CE6A22C214
:104AC000A3E31DC25F5819C29AC814C21F3410C292
:104AD000A09A0BC2B3FB06C23F5702C27F59FBC16B
:104AE00003F8F1C16C89E8C1E70CDFC10C82D5C1C4
:104AF000D5E7CBC1A53DC2C1AA82B8C146B6AEC1F9
:104B0000A8D7A4C1FEE59AC10DE090C16DC586C1CC
:104B10005F2979C1029A64C1BADA4FC110E93AC17A
:104B20008FC225C1C36410C19A99F5C09EEFC9C058
:104B3000D6C59DC0C72962C0CEAA07C08E0630BFA9
:104B4000F38E433F59170F40DAAC6E40F5DBA740B8
:104B50005F29D94012A5054118261F41F31F39418D
:104B60003D9B5341F9A06E411B1E85419F3C9341E3
:104B7000CAB2A1419A88B041DCC6BF410378CF4197
:104B800058A8DF419B66F041A127B7C2AE47B1C22A
:104B900098ECACC2F036A9C2D2E0A5C2A0C9A2C2AC
:104BA0003BDF9FC260169DC26D679AC229CD97C236
:104BB000964395C2BBC792C2595790C297F08DC217
:104BC000EC918BC21D3A89C23EE886C2579B84C2D3
:104BD000BD5282C2C60D80C2C2977BC2311977C254
:104BE000079F72C273286EC2A2B469C22D4365C208
:104BF0005BD360C2C3645CC2C9F657C2038953C2A7
:104C0000091B4FC271AC4AC2EE3C46C215CC41C230
:104C10007F593DC2DDE438C2E06D34C254F42FC286
:104C2000B5772BC2E9F726C2887422C243ED1DC2B4
:104C3000E56119C206D214C2713D10C2BDA30BC2F8
:104C4000D00407C2426002C2516BFBC1A009F2C18D
:104C5000D49AE8C14F1EDFC10C93D5C1D5F8CBC1A2
:104C6000704EC2C17593B8C111C7AEC13EE8A4C1B0
:104C700060F69AC1A4F090C1D0D586C1234A79C10B
:104C8000C7BA64C116FB4FC16C093BC1EBE225C139
:104C9000B68410C17FD9F5C0832FCAC0BC059EC0A1
:104CA00093A962C03D2C08C04A0C32BF3789413FEE
:104CB000EA950E40C7296E406B9AA74004E7D8409A
:104CC000E483054181041F415DFE3841D57853419D
:104CD000917E6E41B30C8541022B9341F9A0A14115
:104CE0006076B04139B4BF41F764CF41E494DF410D
:104CF000BD52F04153F6B6C24429B1C2E4D4ACC2AD
:104D0000F822A9C24FCFA5C2E8B9A2C2E5D09FC27E
:104D10001D099DC2165B9AC296C197C2A13895C261
:104D200064BD92C2844D90C22BE78DC2DC888BC2D9
:104D3000763189C2E6DF86C24D9384C2F54A82C2CB
:104D40003F0680C21D897BC20F0B77C2349172C2AD
:104D5000EE1A6EC287A769C2603665C2DCC660C241
:104D600079585CC2CEEA57C2567D53C2910F4FC2EA
:104D70002DA14AC2DE3146C23BC141C2BF4E3DC237
:104D800051DA38C2A36334C216EA2FC2AC6D2BC20B
:104D9000FAED26C2CE6A22C2A3E31DC25F5819C231
:104DA0009AC814C21F3410C2A09A0BC2B3FB06C229
:104DB0003F5702C27F59FBC103F8F1C16C89E8C1BA
:104DC000E70CDFC10C82D5C1D5E7CBC1A53DC2C17F
:104DD000AA82B8C146B6AEC1A8D7A4C1FEE59AC1A1
:104DE0000DE090C16DC586C15F2979C1029A64C189
:104DF000BADA4FC110E93AC18FC225C1C36410C1EC
:104E00009A99F5C09EEFC9C0D6C59DC0C72962C09A
:104E1000CEAA07C08E0630BFF38E433F59170F400E
:104E2000DAAC6E40F5DBA7405F29D94012A50541F9
:104E300018261F41F31F39413D9B5341F9A06E4194
:104E40001B1E85419F3C9341CAB2A1419A88B04143
:104E5000DCC6BF410378CF4158A8DF419B66F041D3
:104E60003168B6C269CFB0C27D8EACC287E7A8C236
:104E7000169BA5C2F58AA2C20BA69FC27CE19CC26A
:104E80002B369AC2ED9E97C2E91795C25D9E92C2DB
:104E9000EC2F90C2E8CA8DC2D36D8BC2731789C242
:104EA000DCC686C2237B84C28F3382C23BDF7FC2D3
:104EB000495D7BC25CE076C2BB6772C296F26DC28E
:104EC000348069C2F90F65C262A160C2D0335CC28E
:104ED000F7C657C21D5A53C229ED4EC27D7F4AC242
:104EE000B11046C2AAA041C2CC2E3DC2E1BA38C21E
:104EF0009C4434C2ACCB2FC2AB4F2BC262D026C273
:104F0000844D22C2C2C61DC2E73B19C271AC14C295
:104F10005F1810C2147F0BC290E006C2503C02C260
:104F20004024FBC12DC3F1C13255E8C117D9DEC100
:104F3000704ED5C1A2B4CBC1DB0AC2C14850B8C1C2
:104F40004D84AEC1E3A5A4C16EB49AC1E6AE90C1D2
:104F5000469486C17AC778C1863864C1A7794FC1A3
:104F6000FD873AC1E56125C1190410C145D8F4C0D7
:104F7000492EC9C081049DC01EA760C0242806C058
:104F80005AF529BF27A0493F499D10406E34704013
:104F900062A1A840CCEED9409A080641728A1F410E
:104FA000888539413B0154419A086F4189528541B6
:104FB000AA719341A7E8A14148BFB04191FEBF410A
:104FC000F2B0CF41B7E2DF4168A2F041448BB5C2F5
:104FD000013EB0C2301BACC2A285A8C2EA44A5C241
:104FE000643DA2C2145F9FC2D99F9CC2EFF899C2D0
:104FF000606597C296E194C2CE6A92C2D3FE8FC218
:10500000F59B8DC2D2408BC23DEC88C22F9D86C2DB
:10501000F25284C2B30C82C2DE937FC246147BC2BA
:105020007F9976C2B72272C269AF6DC2AB3E69C2C8
:1050300014D064C2EB6260C2C9F65BC2298B57C24E
:10504000A41F53C2D0B34EC22B474AC27FD945C218
:10505000656A41C272F93CC2748638C2001134C21A
:10506000C8982FC2981D2BC2079F26C2E01C22C2DF
:10507000BC961DC2640C19C2A57D14C2FCE90FC206
:105080004E510BC233B306C2760F02C25ECBFAC1D9
:10509000516BF1C1F4FDE7C1AA82DEC1A1F8D4C110
:1050A000705FCBC146B6C1C150FCB7C1BE30AEC106
:1050B000F252A4C1E5619AC1C65C90C18F4286C11B
:1050C000742478C1539663C173D74EC19BE639C12E
:1050D00083C024C120630FC15396F3C029EDC7C01C
:1050E0008FC29BC03A235EC09CA203C03BDF1FBFA0
:1050F00061C3533FBB27134083C0724010E9A940EE
:10510000EF38DB40E6AE0641F9312041492E3A4105
:1051100008AC54410BB56F41C7A9854123CA9341DF
:105120008F42A241A01AB1418C5BC041F90FD0411E
:10513000FE43E0415906F1419770B4C2937AAFC281
:10514000F47DABC221FFA7C207CEA4C2F9D1A1C290
:10515000ACFC9EC2B6449CC2D7A399C25A1597C252
:10516000F79594C2F82292C25EBA8FC2865A8DC257
:105170000C028BC2DFAF88C2126386C2D41A84C20B
:105180006DD681C2CE2A7FC22FAE7AC2603676C279
:105190005BC271C283516DC220E368C2AE7664C245
:1051A000AC0B60C27CA15BC29A3757C2D3CD52C24E
:1051B00088634EC286F849C24A8C45C2841E41C2E9
:1051C000E6AE3CC2223D38C2CEC833C2B7512FC270
:1051D0008DD72AC2025A26C2AED821C28F531DC211
:1051E00009CA18C2023C14C22AA90FC234110BC248
:1051F000D07306C2B1D001C20E4FFAC107F0F0C1A0
:10520000E483E7C16C09DEC19D80D4C13EE8CAC118
:10521000E63FC1C1C286B7C102BCADC1D3DEA3C1E6
:105220002FEE99C1ADE98FC114D085C1B84077C1C7
:10523000FFB262C1F1F44DC1810439C1D3DE23C193
:10524000D8810EC195D4F1C0992AC6C000009AC079
:10525000789C5AC0DA1B00C0A5BD11BF13F2613F94
:10526000AEB6164061547640A2B4AB40C807DD40EC
:105270008D970741AC1C2141091B3B41D49A5541F4
:105280004CA670410B2486410B4694414FC0A2416D
:10529000A09AB14101DEC0411895D04130CCE04127
:1052A0000692F1415F27B3C26B8BAEC244BAAAC269
:1052B0005356A7C2F637A4C2094AA1C2BE7F9EC2F6
:1052C000CBD09BC2663799C24FAF96C2673594C2A6
:1052D00045C791C2EB628FC2CF068DC2C4B18AC2EC
:1052E000AA6288C2A11886C2F2D283C2E59081C2A6
:1052F0000BA47EC2852B7AC24CB775C2C24671C25E
:1053000017D96CC2C66D68C2190464C2A69B5FC27D
:10531000EB335BC27ECC56C2DD6452C29FFC4DC2F1
:105320008F9349C2102945C222BD40C2284F3CC2BA
:10533000EDDE37C2086C33C260F62EC28B7D2AC206
:105340003B0126C23B8121C222FD1CC2BC7418C293
:10535000BBE713C2EA550FC2E0BE0AC24E2206C224
:10536000008001C24FAFF9C1EC51F0C104E7E6C1C2
:10537000FA6DDDC132E6D3C10E4FCAC1BBA7C0C1B1
:105380009EEFB6C1AF25ADC18649A3C1B45999C13D
:10539000D0558FC1D33C85C1711B76C18A8E61C146
:1053A000B7D14CC1B1E137C1D3BC22C1D95F0DC166
:1053B0006891EFC06DE7C3C0A5BD97C01E1656C06B
:1053C000BB27F7BF1214FFBE3D2C743F234A1B407E
:1053D0001CEB7A401904AE40865ADF40F8C20841FF
:1053E000234A2241F54A3C4107CE56412FDD714107
:1053F00055C1864195E594414E62A341483FB24173
:10540000BC85C1414F40D1417F7BE1410B46F24118
:10541000DABBB1C20A77ADC2EBD3A9C2B98DA6C2BD
:105420009C84A3C2CFA6A0C26CE99DC2F7449BC2D4
:1054300061B498C2D03396C276C093C2035891C269
:10544000BBF88EC22DA18CC23B508AC2D00488C248
:1054500028BE85C27F7B83C2503C81C200007EC2D1
:105460004A8C79C2921C75C221B070C259466CC276
:105470009EDE67C26C7863C226135FC263AE5AC2F7
:10548000BA4956C2C3E451C2147F4DC2451849C23D
:1054900021B044C23F4640C237DA3BC2EE6B37C24E
:1054A000E1FA32C2F7862EC2C50F2AC2FE9425C287
:1054B0006D1621C2A9931CC2980C18C2EC8013C2AD
:1054C0003BF00EC2515A0AC2C5BE05C27E1D01C2C2
:1054D00022ECF8C19790EFC15227E6C1ECAFDCC1D6
:1054E000C729D3C11294C9C1FAEDBFC11737B6C1DC
:1054F000636EACC10C93A2C140A498C12DA18EC112
:10550000038984C10BB574C15F2960C15D6D4BC156
:10551000917E36C11D5A21C18BFD0BC19FCDECC0C0
:105520007424C1C009F994C0E78C50C0BF0EECBF11
:1055300005A3D2BE363C853F76E02040D044804073
:10554000A1D6B0402731E240BE300A4130BB2341F2
:1055500048BF3D410B465841E2587341A381874102
:105560008DA895412428A4419A08B341F252C24122
:10557000D111D2412052E2413422F341E336B0C28C
:105580004743ACC2E6CEA8C217A8A5C2F7B5A2C2CF
:10559000FCE99FC2D43A9DC241A29AC2991B98C20B
:1055A000A3A395C2B53793C2D0D590C25D7C8EC2FD
:1055B000092A8CC2BFDD89C2949687C2D05385C2A6
:1055C000BC1483C2C8D880C2143F7DC2E5D078C263
:1055D000666674C2C5FE6FC29A996BC2113667C205
:1055E000C3D362C247725EC200115AC29EAF55C297
:1055F000B94D51C202EB4CC2F78648C27C2144C26D
:1056000010BA3FC262503BC25AE436C2747532C20D
:105610007B032EC2228E29C2321525C2459820C294
:105620003F171CC2B79117C27A0713C21D780EC26A
:1056300088E309C2524905C22AA900C2BC05F8C1C3
:105640003DACEEC10545E5C176CFDBC1F54AD2C11F
:10565000E3B6C8C16F12BFC1FB5CB5C18195ABC1D8
:1056600064BBA1C1D3CD97C1C7CB8DC16EB483C17B
:10567000840D73C17B835EC1B4C849C1BADA34C139
:1056800017B71FC1575B0AC13789E9C00DE0BDC01C
:10569000A2B491C075024AC094F6DEBF091B9EBE3B
:1056A0000A68923FEE7C2740539683400E2DB4400B
:1056B0007E8CE54048E10B41006F254132773F4148
:1056C0000C025A41371A75412C658841288F964142
:1056D0006F12A541C9F6B341A245C341D509D341D3
:1056E000DF4FE341E926F441E09EAEC24DF5AAC288
:1056F000E6AEA7C231A8A4C22FCEA1C225159FC273
:1057000074759CC2ADE999C2FA6D97C270FF94C2DC
:10571000C09B92C22D4190C23CEE8DC2BEA18BC2F5
:10572000BA5A89C25F1887C2F5D984C2ED9E82C277
:10573000A86680C296617CC2DBF977C2329573C2DB
:1057400019336FC20CD36AC2547466C2871662C220
:105750003EB95DC2F55B59C25DFE54C20DA050C298
:105760009D404CC2BEDF47C23C7D43C2AE183FC223
:10577000AAB13AC2174836C2A6DB31C2086C2DC2A4
:10578000D5F828C2F28124C2110720C2E3871BC2C8
:10579000190417C27F7B12C2C6ED0DC2BA5A09C2E4
:1057A000D8C104C2202300C250FCF6C112A5EDC12D
:1057B0001A40E4C1CDCCDAC1584AD1C11DB8C7C125
:1057C0008115BEC17C61B4C1A69BAAC1F8C2A0C1AB
:1057D000A1D696C19BD58CC148BF82C1462571C157
:1057E000E09C5CC154E347C12BF632C15BD31DC1C1
:1057F0006C7808C133C4E5C0091BBAC09EEF8DC0E8
:10580000257542C067D5CFBF38F842BE9A99A13FEF
:10581000E71D2F40BA6B87408E06B8408B6CE9407D
:10582000FED40D41666627411973414147035C412F
:105830002D217741BA6B89419A999741F920A64168
:10584000090AB541355EC4415828D4415A75E4412E
:105850002C54F54179F8ACC29D91A9C24C77A6C2EF
:10586000B190A3C24FCFA0C2092A9EC2869A9BC202
:10587000781C99C27EAC96C2244894C25DED91C258
:10588000BA9A8FC2E64E8DC2C1088BC294C788C235
:105890007F8A86C2E55084C2511A82C264CC7FC21C
:1058A0003E687BC27A0777C25FA972C26A4D6EC238
:1058B00019F369C2B49965C2EC4061C258E85CC290
:1058C000918F58C22B3654C2C0DB4FC21A804BC2D4
:1058D000D12247C296C342C234623EC242FE39C29E
:1058E0008D9735C2C62D31C2B8C02CC2F94F28C21F
:1058F00071DB23C2B7621FC295E51AC2D76316C215
:1059000015DD11C234510DC2CCBF08C2A72804C294
:10591000BC16FFC1ABCFF5C1167BECC1C818E3C103
:10592000BBA7D9C18727D0C18D97C6C1C9F6BCC155
:10593000D044B3C19D80A9C15FA99FC177BE95C165
:10594000E0BE8BC1C7A981C1E7FB6EC125755AC1F5
:105950003CBD45C1B7D130C1B8AF1BC1325506C13E
:10596000917EE1C067D5B5C02AA989C09BE639C040
:10597000C4B1BEBFF93166BD73D7B23F05C537406C
:1059800033C48B40C364BC404ED1ED40780B104112
:1059900062A12941FFB2434152495E41C66D79413E
:1059A000B5958A41AEC79841C353A7415B42B64102
:1059B000AC9CC541916DD5415BC2E54130AAF64131
:1059C000E946ABC2C01BA8C2442BA5C21964A2C23F
:1059D00071BB9FC23D2A9DC292AB9AC2C03B98C286
:1059E0001DD895C2847E93C2502D91C220E38EC2F1
:1059F000ED9E8CC2B15F8AC2C32488C25DED85C2B0
:105A000009B983C2458781C235AF7EC25B537AC272
:105A100044FA75C26EA371C2224E6DC210FA68C2FA
:105A20009BA664C25B5360C200005CC208AC57C254
:105A30003F5753C23B014FC2ADA94AC2485046C26C
:105A4000D7F441C2D6963DC2463639C2BDD234C221
:105A5000EE6B30C2A3012CC2A99327C2B12123C28D
:105A60006BAB1EC2A4301AC20DB115C2712C11C28B
:105A700082A20CC2F21208C28B7D03C2FEC3FDC11A
:105A80000080F4C17D2EEBC10ECFE1C1AA60D8C168
:105A9000EBE2CEC13255C5C1AEB6BBC1C206B2C182
:105AA0006744A8C1006F9EC1888594C15F878AC181
:105AB000827380C1D1916CC11B0D58C1D65643C1B0
:105AC000226C2EC15E4B19C1AAF103C152B8DCC0D1
:105AD000280FB1C0EBE284C0D65630C06688ABBF99
