:100000000C94EE050C941F060C941F060C941F060E
:100010000C941F060C941F060C941F060C941F06CC
:100020000C941F060C9403160C9403160C940316E0
:100030000C94C8210C941F060C941F060C94D51424
:100040000C941F060C94D5150C941F060C941F06D7
:100050000C941F060C941F060C941F060C948B1412
:100060000C941F060C9455140C942B140C941F061E
:100070000C941F060C941F060C941F060C941F066C
:100080000C94A7150C941F060C941F060C941F06C5
:100090000C941F060C941F060C941F060C941F064C
:1000A0000C941F060C941F060C9479150C941F06D3
:1000B0000C941F060C941F060C941F060C944B15F1
:1000C0000C941F060C941F060C941F060C941F061C
:1000D0000C941F060C941F060C94F5130C94CB1370
:1000E0000C941F060C945B0A0C94F30A0C94CB211D
:1000F0000C94E5070C94E7050C94FD070C94D205CD
:100100000C941A240C94B9070C9405080C94AD06B1
:100110000C949C040C94CF0A0C94EF070C94D80711
:100120000C94160F0C94E1050C94240C0C945A0AB0
:100130000C94F00A0C94EF060C948B060C94DF07D9
:100140000C94420A0C94F3070C940B080C94AE0523
:100150000C94D60D0C94DC070C943C070C94FD0C0D
:100160000C947C060C946E040C940F080C949F065F
:100170000C94B70A0C94F7070C94760E0C940108B3
:100180000C944F060C94BE070C94D0070C94D40723
:100190000C94E90748BF8BC18E75313F45D8203F8D
:1001A00000910E3F0681F53EB150CB3EDBF99E3EFD
:1001B000F7E4613E4A7B033E728A0E3DB37B72BD1B
:1001C000F6281CBE910F7ABE4CA6AABE107AD6BEE7
:1001D0008E0600BFBC7413BF265325BFEB7335BF1B
:1001E000B8AF43BF20D24FBF7AC759BFE56161BFE7
:1001F000469466BF674469BF2C6569BF07F066BF58
:10020000DCD761BF3A235ABFAED84FBF6F1243BF8E
:10021000B3EA33BFB37B22BFDBF90EBF3333F3BE88
:10022000D42BC5BEFD8794BEB8AF43BEC74BB7BD88
:10023000AC8B5B3C6891ED3D97FF90BD00000000EA
:10024000228EF53D014D043EF2D20D3EAB3E173EEF
:1002500065AA203EE7FB293E6A4D333EED9E3C3EBB
:1002600039D6453E840D4F3ED044583EE561613E4F
:10027000FA7E6A3ED881733EB6847C3ECAC3823E13
:100280001D38873E71AC8B3E52499DB9B840023F44
:1002900083C0AA3EE4831E3EA913D0BC615452BE63
:1002A000E63FC4BEC4B10EBF23DB39BF333363BFE7
:1002B0008D2885BFD26F97BFFB3AA8BFB762B7BF83
:1002C0006ABCC4BFC520D0BFE561D9BF075FE0BF2E
:1002D00076E0E4BF52B8E6BF74B5E5BFE09CE1BF8D
:1002E0009C33DABF3945CFBFD7A3C0BF2428AEBFE8
:1002F00067D597BFC8987BBF29CB40BFF77500BFB4
:100300007CF270BEE4831E3DEE7C9F3E6F12133F75
:100310002EFF513FBF7D853F9D809E3F0000000026
:10032000A32319BF143F06BF0A68E2BE1895B4BEE6
:10033000B8AF83BE401321BE643B5FBDF085493D2D
:10034000E3A51B3E5C20813EF31FB23E5227E03EF8
:10035000EF38053FB537183FA7E8283FE71D373F7F
:10036000CAC3423F36CD4B3F2A3A523F4F1E563FFB
:100370003480573F107A563FA52C533F9FAB4D3FDB
:100380004F1E463F7AA53C3FE561313F6F81243FD8
:100390004F1E163F6666063F0C02EB3E022BC73E21
:1003A0006EA3A13EEB73753E787A253E7958A83D41
:1003B00027A0093BE5F29FBDAE4721BE575B71BE4A
:1003C0005C8F023E0000000068B36ABE65AA60BE92
:1003D00062A156BEF1634CBE812642BED9CE37BE65
:1003E00032772DBE1CEB22BE3E7918BEF2D20DBE76
:1003F000A52C03BEB30CF1BDAC8BDBBD39D6C5BD9E
:10040000C520B0BD516B9ABDDDB584BDF6975DBD0D
:1004100052499D39849ECD3C7CF2903E70CE083F7F
:100420001904463F89D27E3F5C20993F20D2AF3FDE
:10043000083DC33F6A4DD33F2BF6DF3F2041E93FE4
:100440003945EF3F6519F23F23DBF13F36ABEE3F15
:1004500065AAE83F2BF6DF3F4FAFD43FDBF9C63F3D
:10046000DBF9B63F2FDDA43F70CE903F3411763FCD
:10047000C286473FB98D163F705FC73E925C3E3ED5
:100480005305A3BC79E966BE234ADBBEE02D20BF3D
:100490000EBE50BF52B87EBF5BD394BF5986A8BF73
:1004A000713DBABF48BF8B41141017C2F0A706BEFA
:1004B00039B448BD70CE083D8CB9EB3D2731483E7C
:1004C000BA498C3E4F40B33EACADD83E1136FC3EEF
:1004D000FBCB0E3FCD3B1E3F48502C3FFED4383F58
:1004E0002AA9433F96B24C3F61C3533FE3C7583FED
:1004F000C8985B3FF6285C3F355E5A3F6B2B563FF2
:100500007B834F3FD95F463F11C73A3FB1BF2C3F76
:10051000D6561C3FD0B3093FB1E1E93EB684BC3E9C
:10052000DFE08B3E7CF2303E4D158C3D52491DBDC7
:100530003D9B15BEE56181BE4694B6BE9E5EE9BE9A
:100540007F6A0CBF651922BFB45935BF07CEB93ECB
:10055000000000002FDD34BF143F36BF508D37BF81
:10056000FED438BF910F3ABF083D3BBF645D3CBF2E
:1005700032773DBFE4833EBF7B833FBF857C40BF76
:10058000736841BF454742BF8A1F43BF26E443BF4C
:10059000C1A844BF426045BFA60A46BF17B751393C
:1005A000091BCEBFA779BFBFC286AFBF66669EBF1D
:1005B0003D2C8CBFF7E471BF27A049BFB29D1FBF80
:1005C000B9FCE7BE849E8DBE80B7C0BDCA54C13D94
:1005D000CFF7933EBE9FFA3E0E2D323F3E79683FE5
:1005E000D509903FD656AC3F60E5C83F984CE53FF3
:1005F0006F81004027A00D40BF7D19404A7B2340FA
:100600005DDC2A4017D92E400BB52E40C6DC2940B0
:10061000A30120407D3F11401136FC3FDBF9CE3F66
:100620002B189D3F6519523FFD87D43E17B7D13C2B
:100630000000000039B4C83CDC6800BE3B708EBED0
:10064000D191DCBEC66D14BF55C138BF355E5ABFEF
:10065000956578BF401389BFD88193BFB1509BBFC8
:100660009565A0BF11C7A2BFCE88A2BFAED89FBF5D
:1006700063EE9ABF061294BF1F858BBFC58F81BFE3
:100680001FF46CBF66F754BFE3A53BBFE56121BF14
:100690002B8706BF7DAED6BE5227A0BECFF753BE76
:1006A00017B7D1BD17B7D1393B70CE3D5F294B3E4F
:1006B000C6DC953E1D5AC43E29CBF03EBF7D0D3FA2
:1006C0007368213FEA04343F7D3F453F66F7543F5E
:1006D0008A1F633F8273E6BE00000000E926613F87
:1006E000FB3A603F643B5F3FB22E5E3FC8075D3F11
:1006F000C3D35B3F88855A3F302A593FA2B4573F46
:10070000F931563F1895543F1CEB523FE926513FB3
:100710009B554F3F166A4D3F76714B3F2C65493FC5
:100720003945473F17B751B99BE6C53F8D28A53FCF
:1007300029CB803FE63F343F1E16CA3E7DD0B33DF5
:10074000613255BEA323F9BE091B3EBFF90F79BF25
:100750009D8096BF2FDDACBFF9A0BFBF5DDCCEBFD3
:1007600021B0DABF4F40E3BF39B4E8BF7A36EBBF00
:1007700063EEEABFD509E8BF21B0E2BF9A08DBBF4C
:100780006744D1BF228EC5BFA913B8BFDE02A9BF7F
:10079000A08998BF17D986BFB53768BF250641BF66
:1007A000956518BF363CDDBE67D587BECA32C4BD6D
:1007B00076719B3D12147F3E1410174200002100F9
:1007C000240027002A002D00300033000101000022
:1007D000040107010A0100000A0B02090C0D0E08B2
:1007E00007030401000000000000000000000000FA
:1007F00000000000000000000000000000000000F9
:1008000000001211100000000000000000000000B5
:1008100000000000000000000000000000002000B8
:100820002300260029002C002F00320000010000C8
:1008300003010601090100002200250028002B0009
:100840002E003100340002010000050108010B01F7
:1008500005050505070508080808020202020A0A3C
:10086000080804040404010101010101010103035A
:10087000030303030303040707070C0C0C0C0C0C05
:100880000C0C0202020206060606060606060B0B02
:100890000B0B0B0B0B0B0102102020080810204043
:1008A0001020408002010201080402010102040834
:1008B00010204080804020100804020180040201C2
:1008C000804020100804020108040201010204080B
:1008D00010204080010204081020408080919E0476
:1008E000811109C080915805823010F00E94E018F3
:1008F0000E945C07F3CF0FB6F8940F92E091330596
:10090000F0913405C681D781CE0102960E94CC17A2
:100910008091540581508093540580919E048150AC
:1009200080939E040F900FBE8F89988D0E941B1D8F
:10093000CE010E941B1DD2CFCF93DF9300D01F9218
:100940001F92CDB7DEB7E0910405F0910505108147
:10095000F12CE12C112329F00580F681E02DE080B7
:10096000F1800E9479170E946F176C018091A20498
:100970009091A304C816D90608F04CC00E94CE1C62
:10098000D092A304C092A2040E94A61950E040E0B5
:10099000BE016F5F7F4F80911F05909120050E94DF
:1009A000AC1D882381F2898187FDF0CF0C811D81E8
:1009B000F80182859385892B21F0C80102960E9457
:1009C000CC170E946F177C018091A2049091A30420
:1009D000E816F90610F40E94CE1CF092A304E092EF
:1009E000A204E981EA3090F60E2E000CFF0BD8012C
:1009F00052969C918827E050FB4F8F4F0C94CE2845
:100A0000AE05AE05AE05E705D205E105AE05AE05BE
:100A1000E705D205D092A304C092A204112399F154
:100A2000CE14DF04B8F10E94A619E0910405F091FC
:100A300005050580F681E02D06811781C801029623
:100A40000E94CC17D80152968C91529782FF17C002
:100A50001C966D917C916E0D7F1D9701A601C801BA
:100A60000E942618882321F0B701C8010E94A51C06
:100A7000D8015096ED91FC91C801199587CF8E7FD2
:100A8000F801828BF5CFE0910205F091030580819A
:100A900061E0811160E000911F05109120050FB603
:100AA000F8940F92F801858D8F3F09F4158ED801C7
:100AB0005E968C915E978F3F11F45E961C920F901C
:100AC0000FBEF801828D81113FC00288F389E02DAD
:100AD000A0916A04B0916B041F96FC93EE931E974D
:100AE000A0916A04B0916B048481958151969C9386
:100AF0008E93509780916A0490916B04A481B58184
:100B00000C9613969C938E93129780916A04909101
:100B10006B040C9695838483E0916A04F0916B04D6
:100B2000C8014196958B848BD80151968C91519731
:100B30008F5F51968C93C7018C199D09662311F024
:100B40008FEF9FEF0E945018C8010E948A170E94E1
:100B5000A61981111BCF0E94E01818CF9160F801EF
:100B6000928B2A813B8164857585620F731FA70173
:100B7000C8010E942618882309F408CFD80150968E
:100B8000ED91FC91C8011995F801828982FFFECE92
:100B90006A817B8184859585680F791FC8010E94D1
:100BA000A51CF4CE9160F801928B6A817B817587D8
:100BB00064876E0D7F1D9701A701C8010E9426184A
:100BC000E5CE91FD04C0C8010E941B1DDFCE9E7FB3
:100BD000D80152969C93DACECB211A2411241FBE41
:100BE000CFEFD1E2DEBFCDBF00E00CBF14E0A0E04C
:100BF000B2E0E8EEF3E500E00BBF02C007900D9213
:100C0000AA36B107D9F727E0AAE6B4E001C01D92E1
:100C1000AF38B207E1F715E0CDEED5E000E006C051
:100C200021970109802FFE010E94CE28CC3ED107DA
:100C300080E00807A9F70E9404230C94E2290C9491
:100C40000000FC01A089B18982E08C93A485B58560
:100C50001C92A685B78580E18C93108EA489B589F6
:100C600086E08C93A289B3898C9180618C93A28950
:100C7000B3898C9188608C93A289B3898C918068A8
:100C80008C930288F389E02D80818F7D8083089585
:100C9000DC01ED91FC910190F081E02D1994AF926F
:100CA000BF92CF92DF92EF92FF920F931F93CF9359
:100CB000DF936C017B018B01040F151FEB015E01BB
:100CC000AE18BF08C017D10759F06991D601ED9150
:100CD000FC910190F081E02DC6011995892B79F7DF
:100CE000C501DF91CF911F910F91FF90EF90DF90A1
:100CF000CF90BF90AF900895FC01538D448D252F68
:100D000030E0842F90E0821B930B541710F0CF96A5
:100D1000089501970895FC01918D828D981761F0D7
:100D2000A28DAE0FBF2FB11D5D968C91928D9F5FEE
:100D30009F73928F90E008958FEF9FEF0895FC01CD
:100D4000918D828D981731F0828DE80FF11D858D80
:100D500090E008958FEF9FEF0895FC01918D228D13
:100D6000892F90E0805C9F4F821B91098F73992798
:100D700008958DE795E00E94AD0621E0892B09F4E6
:100D800020E0822F08958AE196E00E94AD0621E0DE
:100D9000892B09F420E0822F0895FC01A48DA80F6F
:100DA000B92FB11DA35ABF4F2C91848D90E00196AD
:100DB0008F739927848FA689B7892C93A089B189CD
:100DC0008C91837080648C93938D848D981306C06E
:100DD0000288F389E02D80818F7D80830895EF92D2
:100DE000FF920F931F93CF93DF93EC0181E0888FE5
:100DF0009B8D8C8D98131AC0E889F989808185FFB5
:100E000015C09FB7F894EE89FF896083E889F98956
:100E100080818370806480839FBF81E090E0DF9158
:100E2000CF911F910F91FF90EF900895F62E0B8DAB
:100E300010E00F5F1F4F0F731127E02E8C8D8E1166
:100E40000CC00FB607FCFACFE889F989808185FFCD
:100E5000F5CFCE010E94CD06F1CFEB8DEC0FFD2F2B
:100E6000F11DE35AFF4FF0829FB7F8940B8FEA8988
:100E7000FB8980818062CFCFCF93DF93EC01888D97
:100E80008823B9F0AA89BB89E889F9898C9185FD05
:100E900003C0808186FD0DC00FB607FCF7CF8C9193
:100EA00085FFF2CF808185FFEDCFCE010E94CD0678
:100EB000E9CFDF91CF91089580E090E0892B29F070
:100EC0000E94C30681110E94000080E090E0892BFF
:100ED00049F080E090E0892B29F00E940000811108
:100EE0000E94000080E090E0892B49F080E090E0D3
:100EF000892B29F00E94000081110E94000080E0EF
:100F000090E0892B29F00E94B90681110C94000011
:100F10000895282F30E0F901EA52F84F9491F90131
:100F2000EA56F74F4491205B374FF9012491222371
:100F300009F435C0992311F191509231F8F4E92F59
:100F4000F0E08827E955F84F8F4F0C94CE28D8074A
:100F5000DC07B907D007D407BE07DF07E507E907B5
:100F6000EF07F307F707FD070108BE0705080B08A1
:100F70000F08809180008F7780938000E22FF0E04F
:100F8000EE0FFF1FEA5CF74FA591B4918FB7F8946D
:100F9000EC91611148C040954E234C938FBF08954A
:100FA000809180008F7DE8CF80918000877FE4CFA3
:100FB00084B58F7784BDE2CF84B58F7DFBCF8091E0
:100FC000B0008F778093B000D9CF8091B0008F7D33
:100FD000F9CF809190008F7780939000CFCF809150
:100FE00090008F7DF9CF80919000877FF5CF809121
:100FF000A0008F778093A000C1CF8091A0008F7D4B
:10100000F9CF8091A000877FF5CF809120018F7765
:1010100080932001B3CF809120018F7DF9CF809103
:101020002001877FF5CF4E2BB8CFCF93DF9390E091
:10103000FC01EA56F74F2491805B974FFC018491A5
:101040008823D1F090E0880F991FFC01E454F84FF9
:10105000A591B491FC01EA5CF74FC591D49161115F
:101060000EC09FB7F8948C91E22FE0958E238C935D
:101070002881E223E8839FBFDF91CF9108958FB746
:10108000F894EC91E22BEC938FBFF6CF3FB7F89436
:101090008091FE049091FF04A0910005B09101059C
:1010A00026B5A89B05C02F3F19F00196A11DB11DC3
:1010B0003FBFBA2FA92F982F8827BC01CD01620FFF
:1010C000711D811D911D42E0660F771F881F991FBA
:1010D0004A95D1F708958F929F92AF92BF92CF9287
:1010E000DF92EF92FF924B015C010E9446086B0178
:1010F0007C010E9446086C197D098E099F09683E93
:10110000734081059105A8F321E0821A9108A10896
:10111000B10888EEC80E83E0D81EE11CF11C8114D2
:101120009104A104B10429F7FF90EF90DF90CF90D4
:10113000BF90AF909F908F9008958F929F92AF92A3
:10114000BF92FF920F931F93CF93DF93FC01F08028
:101150008FE28F1508F44AC0828108E512E0081B6F
:10116000110987FD1395000F111F000F111F8181B9
:10117000C8E8D0E0C81BD10987FDD395CC0FDD1F8F
:10118000CC0FDD1F4E010D2E000CAA08BB089801E4
:10119000012E000C440B550B281939094A095B092B
:1011A000DB010E945B2724EB30E040E050E00E942E
:1011B0003127820E931EA41EB51E8C169D062CF0A0
:1011C000E801801691060CF4E4012297CC0FDD1F94
:1011D0002FB7F8948F2D90E0FC01EE0FFF1FE80F62
:1011E000F91FE954F94FD283C1832FBFDF91CF910B
:1011F0001F910F91FF90BF90AF909F908F90089597
:101200001F93CF93DF93EC01162F8881803308F072
:101210004EC061E0812F0E9415088881282F30E0A0
:10122000F901EE0FFF1FE20FF31FE954F94F1F738F
:101230006081607C612B608319821A822CE0622FAE
:101240000E94AE28829FB001112430E020E0AB0163
:10125000420F531FFA01EE0FFF1FE40FF51FE95471
:10126000F94F908196FD16C02F5F3F4F2C3031050E
:1012700071F7813009F51092800082E0809381003F
:101280001092850010928400B19A80916F00826064
:1012900080936F00E8818E2F90E0FC01EE0FFF1F1E
:1012A000E80FF91FE954F94F8081806480838881B9
:1012B000DF91CF911F910895823061F410929000D8
:1012C00080939100109295001092940088BB8093B7
:1012D0007100E0CF833069F41092A00082E0809327
:1012E000A1001092A5001092A40089BB8093720007
:1012F000D1CF8111CFCF1092200182E080932101C4
:1013000010922501109224018ABB80937300C2CFF2
:10131000AF92BF92CF92DF92EF92FF920F931F9303
:10132000CF93DF936B017A01EC01C851DB4F288129
:101330003CE0389F8001399F100D1124A090470791
:10134000B12C27FF1FC0FB011182108288818F5FA3
:10135000888388819801280F311D87FD3A95F60111
:101360002A153B051CF488818C30C4F18081918161
:10137000049680349C4908F473C0F6018081918101
:10138000049670C088819801280F311D87FD3A9519
:101390002A153B05DCF68881A801480F511D87FD01
:1013A0005A95FA01EE0FFF1FE40FF51FE954F94FAC
:1013B000808186FFCBCF8881F801E80FF11D87FD82
:1013C000FA95CF01EE0FFF1FE80FF91FE954F94F0F
:1013D000808160E08F730E948907B8CF80819181FE
:1013E0002881A801420F511D27FD5A959A01FA0143
:1013F000EE0FFF1FE20FF31FE954F94F21813281F5
:10140000820F931FF7019183808388819801280FB1
:10141000311D87FD3A95F901EE0FFF1FE20FF31F13
:10142000E954F94F808186FF22C08881080F111D81
:1014300087FD1A95F801EE0FFF1FE00FF11FE95429
:10144000F94F808161E08F73DF91CF911F910F91F0
:10145000FF90EF90DF90CF90BF90AF900C948907F2
:1014600080E49CE9F701918380838FEF8883DF918B
:10147000CF911F910F91FF90EF90DF90CF90BF9091
:10148000AF9008952091E6043091E70428173907BA
:1014900071F49091E5048091E404981741F0E09193
:1014A000E504F0E0EC55FB4F808190E008958FEF6C
:1014B0009FEF08950895EF92FF920F931F93CF939C
:1014C000DF93DC015C96ED90FC905D97E114F104F4
:1014D00079F481E090E013969C938E93129790E0BC
:1014E00080E0DF91CF911F910F91FF90EF900895D1
:1014F0005196ED91FC91529750968C915097982F60
:1015000090950FB75E962C915E97122F127021FD69
:101510006095F8942081112319F1282B2083E7018D
:101520002197F1F728E0462F50E0308160FF1AC084
:10153000382B3083E7012197F1F7BA01759567954C
:10154000215089F7112381F08081892380830FBF87
:101550005C968D919C910197F1F781E090E0C1CF6D
:101560002923DCCF3923E5CF9081892BEFCF209140
:10157000E6043091E7042817390771F48091E404F8
:101580002091E50490E0805C9F4F821B910960E40C
:1015900070E00E94BA28089590E080E008952091BC
:1015A000E6043091E70428173907B9F49091E5046F
:1015B0008091E404981789F0E091E504F0E0EC559F
:1015C000FB4F80812091E50430E02F5F3F4F2F7368
:1015D00033272093E50490E008958FEF9FEF08955F
:1015E00090E080E008951F93CF93DF93C0919C0417
:1015F000D0919D0480919A0490919B04C817D907BB
:101600000CF063C010910302612F8AE20E948907E7
:1016100081E01827109303022196D0939D04C09374
:101620009C04C0919804D091990480919604909163
:101630009704C817D9070CF051C010910202612F0E
:101640008CE20E94890781E01827109302022196FC
:10165000D0939904C0939804C0919404D0919504B8
:101660008091920490919304C817D9070CF03FC061
:1016700010910102612F8EE20E94890781E01827F4
:10168000109301022196D0939504C0939404C091C5
:101690009004D091910480918E0490918F04C8178A
:1016A000D90774F510910002612F80E30E94890729
:1016B00081E01827109300022196D0939104C093E3
:1016C0009004DF91CF911F91089510929D04109284
:1016D0009C0410929B0410929A04A3CF1092990438
:1016E000109298041092970410929604B5CF10921D
:1016F0009504109294041092930410929204C7CF10
:10170000109291041092900410928F0410928E0403
:10171000D8CFFC0101900020E9F73197AF01481BB9
:10172000590BBC018AE196E00C944F068F929F9270
:10173000AF92BF920F931F93CF93DF93CDB7DEB7D6
:10174000A1970FB6F894DEBF0FBECDBF19A24230ED
:1017500008F44AE08E010F5D1F4F842E912CB12CAE
:10176000A12CA50194010E946327E62FB901CA01AB
:10177000EA30F4F4E05DD801EE938D01232B242BA5
:10178000252B79F790E080E0109719F0CD010E94A9
:10179000890BA1960FB6F894DEBF0FBECDBFDF91C7
:1017A000CF911F910F91BF90AF909F908F90089510
:1017B000E95CE1CFCF93DF930E94890BEC0183E3D7
:1017C00092E00E94890B8C0F9D1FDF91CF910895AD
:1017D000CF93DF93EC01198218821B821A821D823B
:1017E0001C8261E070E090E080E00E94EA280097AF
:1017F000A1F0998388831B821A822C813D81232B3F
:1018000011F4FC0110821D821C8265E372E0888164
:101810009981DF91CF910C94DB2988819981009780
:1018200011F00E94E524198218821D821C821B82FD
:101830001A82DF91CF910895FC01808191810097F8
:1018400011F00C94E5240895CF93DF9300D01F92FC
:101850001F92CDB7DEB71D824FEF5FEFBE016F5F06
:101860007F4F80918C0490918D040E94AC1D882341
:1018700009F4AEC0C980DA80EB80FC8080908604D9
:1018800090908704A0908804B090890420E030E014
:10189000A901C701B6010E94A92887FD80C060E0A8
:1018A00081E30E948907A5019401C701B6010E9446
:1018B00095276B017C0120E030E0A9010E94A92856
:1018C00018160CF077C0A7019601C701B6010E9457
:1018D000952720E030E048EC54E40E94732620E095
:1018E00030E044EB53E40E9401280E947328262F25
:1018F00020938E0470938F04622F77FF02C06F5F76
:101900007F4F75956795072E000C880B990B0E94E9
:10191000142620E030E044EB53E40E94732620E0DC
:1019200030E048EC54E40E9401284B015C0120E0C7
:1019300030E0A901C701B6010E94A928181624F0B9
:10194000F7FAF094F7F8F09420E030E0A901C5012F
:10195000B4010E94A928181624F0B7FAB094B7F879
:10196000B094A5019401C701B6010E949427609329
:10197000860470938704809388049093890420914F
:1019800090043091910480918E0490918F042817D7
:101990003907B4F481E090E00E942C1DF0CF61E0A3
:1019A00081E30E948907A5019401C701B6010E9445
:1019B00094277FCFC701B60190589B01AC0187CF18
:1019C000109291041092900410928F0410928E0441
:1019D00081E08D834FEF5FEFBE016B5F7F4F8091A2
:1019E0008A0490918B040E946E1B19821A821B82BA
:1019F0001C821D820E94E0182FCFCF93DF9300D06E
:101A00001F921F92CDB7DEB71D824FEF5FEFBE0171
:101A10006F5F7F4F80918404909185040E94AC1D7C
:101A2000882309F4AEC0C980DA80EB80FC80809006
:101A30007E0490907F04A0908004B090810420E008
:101A400030E0A901C701B6010E94A92887FD80C026
:101A500060E08FE20E948907A5019401C701B601E9
:101A60000E9495276B017C0120E030E0A9010E94D3
:101A7000A92818160CF077C0A7019601C701B60176
:101A80000E94952720E030E048EC54E40E94732641
:101A900020E030E044EB53E40E9401280E947328C8
:101AA000262F2093920470939304622F77FF02C035
:101AB0006F5F7F4F75956795072E000C880B990B0C
:101AC0000E94142620E030E044EB53E40E94732689
:101AD00020E030E048EC54E40E9401284B015C0116
:101AE00020E030E0A901C701B6010E94A92818161C
:101AF00024F0F7FAF094F7F8F09420E030E0A90130
:101B0000C501B4010E94A928181624F0B7FAB094B0
:101B1000B7F8B094A5019401C701B6010E949427BB
:101B200060937E0470937F0480938004909381047B
:101B300020919404309195048091920490919304A3
:101B400028173907B4F481E090E00E942C1DF0CFF3
:101B500061E08FE20E948907A5019401C701B601E7
:101B60000E9494277FCFC701B60190589B01AC011A
:101B700087CF1092950410929404109293041092BF
:101B8000920481E08D834FEF5FEFBE016B5F7F4F6B
:101B900080918204909183040E946E1B19821A82A4
:101BA0001B821C821D820E94E0182FCFCF93DF93EF
:101BB00000D01F921F92CDB7DEB71D824FEF5FEFAF
:101BC000BE016F5F7F4F80917C0490917D040E94E5
:101BD000AC1D882309F475C0C980DA80EB80FC80D5
:101BE00020E030E0A901C701B6010E94A92860E009
:101BF00087FD61E08DE20E94890720E030E0A901C5
:101C0000C701B6010E94A92818160CF04CC0A70104
:101C10009601C701B6010E94952720E030E048EC0C
:101C200054E40E94732620E030E044EB53E40E9429
:101C300001280E947328709397046093960486E3AA
:101C400092E00E94890BC0909604D09097040D2CCE
:101C5000000CEE08FF084AE0C701B601F7FE0DC010
:101C60006DE28AE196E00E94480666277727CB015D
:101C70006C197D098E099F094AE00E94960B83E347
:101C800092E00E94890B20919804309199048091F0
:101C9000960490919704281739075CF481E090E04E
:101CA0000E942C1DF0CFC701B60190589B01AC01DA
:101CB000B2CF109299041092980410929704109247
:101CC000960481E08D834FEF5FEFBE016B5F7F4F26
:101CD00080917A0490917B040E946E1B19821A8273
:101CE0001B821C821D820E94E01868CFCF93DF9375
:101CF00000D01F921F92CDB7DEB71D824FEF5FEF6E
:101D0000BE016F5F7F4F80917804909179040E94AB
:101D1000AC1D882309F475C0C980DA80EB80FC8093
:101D200020E030E0A901C701B6010E94A92861E0C6
:101D300087FD60E08BE20E94890720E030E0A90186
:101D4000C701B6010E94A92818160CF04CC0A701C3
:101D50009601C701B6010E94952720E030E048ECCB
:101D600054E40E94732620E030E044EB53E40E94E8
:101D700001280E94732870939B0460939A0488E45E
:101D800092E00E94890BC0909A04D0909B040D2C85
:101D9000000CEE08FF084AE0C701B601F7FE0DC0CF
:101DA0006DE28AE196E00E94480666277727CB011C
:101DB0006C197D098E099F094AE00E94960B83E306
:101DC00092E00E94890B20919C0430919D048091A7
:101DD0009A0490919B04281739075CF481E090E005
:101DE0000E942C1DF0CFC701B60190589B01AC0199
:101DF000B2CF10929D0410929C0410929B041092FA
:101E00009A0481E08D834FEF5FEFBE016B5F7F4FE0
:101E100080917604909177040E946E1B19821A8239
:101E20001B821C821D820E94E01868CFCF93DF9333
:101E3000CDB7DEB764970FB6F894DEBF0FBECDBF47
:101E40008FE190E00E942C1D1C8A1B8A1A8A198A35
:101E500080E090E0A2EAB3E48D879E87AF87B88BDD
:101E600040E050E067E873E449875A876B877C87D6
:101E70008D839E83AF83B88780E090E0A7E8B3ECC2
:101E800089839A83AB83BC8300E714E021E040E8B8
:101E900050E06AE572E086E79EE00E9452200EE67E
:101EA00014E021E040E850E069E672E086ED9DE054
:101EB0000E94522004E714E021E040E850E068E787
:101EC00072E08DEF9CE00E94522002E714E021E0D6
:101ED00040E850E067E872E084E29CE00E94522013
:101EE0000E94E0184FEF5FEFBE01635F7F4F80916C
:101EF0007804909179040E946E1B4FEF5FEFBE0152
:101F0000675F7F4F80917C0490917D040E946E1BDF
:101F10004FEF5FEFBE016B5F7F4F80918404909124
:101F200085040E946E1B4FEF5FEFBE016F5F7F4F16
:101F300080918C0490918D040E946E1B0E94E01889
:101F40008C89882349F08B89882331F08A898823FA
:101F500019F0898981112DC04FEF5FEFBE016C5ED2
:101F60007F4F80917604909177040E94AC1D4FEFD3
:101F70005FEFBE016D5E7F4F80917A0490917B048C
:101F80000E94AC1D4FEF5FEFBE016E5E7F4F8091F0
:101F90008204909183040E94AC1D4FEF5FEFBE015D
:101FA0006F5E7F4F80918A0490918B040E94AC1DDC
:101FB000C7CF0E94E0181C8A1B8A1A8A198A80914E
:101FC0007004909171040E94411D80916E04909163
:101FD0006F040E94411D80917404909175040E94C9
:101FE000411D80917204909173040E94411D0E94D2
:101FF000E0188FE190E00E942C1D86E992E00E949B
:10200000DA0B1D8619868EE390E00E942C1D88EA6B
:10201000A82E84E0B82E94E9C92E91E0D92EF12C97
:10202000E12CF5016591759185919491F6014590AA
:1020300055906590749026E636E646E650E40E9498
:10204000732690586D837E838F83988720E030E0DD
:1020500040E450E4C301B2010E94732690586983A2
:102060007A838B839C8304E714E021E040E850E00E
:1020700068E772E08DEF9CE00E94522002E714E0D6
:1020800021E040E850E067E872E084E29CE00E94D2
:1020900052204FEF5FEFBE016B5F7F4F8091840452
:1020A000909185040E946E1B4FEF5FEFBE016F5F42
:1020B0007F4F80918C0490918D040E946E1B8D85C2
:1020C000882319F08985811117C04FEF5FEFBE019A
:1020D000635F7F4F80918204909183040E94AC1DC6
:1020E0004FEF5FEFBE01675F7F4F80918A04909151
:1020F0008B040E94AC1DE3CF1D8619868091740469
:10210000909175040E94411D809172049091730416
:102110000E94411DE114F104A9F56DE070E088E42E
:1021200097E00E9400098FE190E00E942C1D0EE6CE
:1021300010E0B80188E497E00E949D0881E090E0FB
:102140000E942C1D015011090035110591F78FE1F6
:1021500090E00E942C1D80EB92E00E94DA0B8FEF42
:10216000E81AF80A84E0A80EB11C84E0C80ED11C5D
:1021700085ECE816F10409F054CF88E391E00E9461
:102180002C1D3FCF83ECE816F10449F76DE070E0B9
:1021900088E497E00E9400098FE190E00E942C1DE6
:1021A00000E510E0B80188E497E00E949D0881E016
:1021B00090E00E942C1D0F5F1F4F0E36110591F706
:1021C0008FE190E00E942C1D8AEB92E0C6CF0F9326
:1021D0001F93CF93DF938AE196E00E9421068DE75B
:1021E00095E00E94210683EC92E00E94DA0B6AE0FF
:1021F00070E080E090E00E946B0861E089E10E945D
:10220000150861E08AE10E94150861E08BE10E94F7
:102210001508C5E0D0E061E089E10E94890761E02E
:102220008AE10E94890761E08BE10E94890764E6E8
:1022300070E080E090E00E946B0860E089E10E941D
:10224000890760E08AE10E94890760E08BE10E94D3
:10225000890764E670E080E090E00E946B082197B7
:10226000D1F660E089E10E94890761E08AE10E947D
:10227000890760E08BE10E94890781EF92E00E946C
:10228000DA0B6AE070E080E090E00E946B0860E0AA
:1022900086E10E94150860E087E10E94150860E071
:1022A00088E10E94150883E193E00E94DA0B6AE05E
:1022B00070E080E090E00E946B0861E08BE20E9499
:1022C000150861E08AE20E94150861E089E20E9437
:1022D000150861E08DE20E94150861E08CE20E9421
:1022E000150861E089E20E94150861E08FE20E9412
:1022F000150861E08EE20E94150861E089E20E9403
:10230000150861E081E30E94150861E080E30E9406
:10231000150861E089E20E94150860E089E20E94E8
:10232000890760E089E20E94890760E089E20E94F3
:10233000890760E089E20E94890788E393E00E94B0
:10234000DA0B6AE070E080E090E00E946B08109287
:10235000690710926807109267071092660710923B
:102360006507109264078DE991E090936B07809365
:102370006A0780915A0796EF980F943048F02EEC38
:10238000280F243028F022EC280F283008F061C0F4
:102390002DEB30E030936507209364072BE931E0A3
:1023A00030936707209366072CE231E0309369078A
:1023B00020936807943050F02EEC280F243030F032
:1023C00022EC280FF0E0E0E0283010F4E8E6F0E03E
:1023D0002081943028F032EC380F383008F4BEC138
:1023E00031E0232B943048F09EEC980F943028F085
:1023F0008E53F0E0E0E0883010F4E8E6F0E020836F
:1024000020915A0736EF320F343008F4A9C18EEC10
:10241000820F843008F4A4C182EC820F883008F463
:10242000A2C190E080E0909362078093610734300E
:1024300008F09CC12650330B81E001C0880F2A951B
:10244000EAF78093630780916A0790916B07019781
:10245000F1F78091680790916907892B49F1E09124
:10246000E604F091E70487E0EE34F80709F13097CD
:1024700039F0A389B4899C918589809589238C93AF
:1024800080916C078E7F80936C071092E404109209
:10249000E5048EE497E09093E7048093E604E091EE
:1024A0006107F0916207808190916307892B808397
:1024B0006AEA8EE497E00E94480663E18EE497E0C2
:1024C0000E94480661E08EE497E00E9448066AE0B8
:1024D0008EE497E00E94480668EC8EE497E00E9444
:1024E000480684E693E00E94DA0B6AE070E080E040
:1024F00090E00E946B0861E08DE30E94150860E0A7
:102500008DE30E94890786E893E00E94DA0B6AE077
:1025100070E080E090E00E946B086CE070E08BE47B
:1025200097E00E94000968E770E08BE497E00E9462
:102530009D086DE070E088E497E00E9400096EE677
:1025400070E088E497E00E949D0868EC70E080E00D
:1025500090E00E946B08E0914B078E2F90E0FC0109
:10256000EE0FFF1FE80FF91FE954F94F80818F7BB1
:102570008083E09148078E2F90E0FC01EE0FFF1F53
:10258000E80FF91FE954F94F80818F7B808368EC55
:1025900070E080E090E00E946B088BEA93E00E947C
:1025A000DA0B6AE070E080E090E00E946B088AE05D
:1025B00090E0A0E0B0E08093EF049093F004A0934B
:1025C000F104B093F20483EF9AE09093ED048093CA
:1025D000EC04809170008E7F809370008091B00039
:1025E0008C7F8093B0008091B100877F8093B10091
:1025F0008091B6008F7D8093B600809170008D7FB2
:10260000809370008091B10084608093B1008091CC
:10261000B1008C7F8093B10087EE90E09093F80436
:102620008093F7041092F3041092F4041092F504CE
:102630001092F6041092EE048091F7049091F80441
:102640008093B2008091700081608093700085ED6E
:1026500093E00E94DA0B6AE070E080E090E00E9474
:102660006B0880917B00877F80937B0080E4809360
:102670007C0080917A00806480937A0080917A0057
:1026800086FDFCCF8091780060917900762F682FCD
:10269000072E000C880B990B6115710581059105BA
:1026A00011F00E94092664E081E00E948521909348
:1026B00079048093780464E081E00E9485219093FE
:1026C0007D0480937C0464E081E00E9485219093E6
:1026D00085048093840464E081E00E9485219093C6
:1026E0008D0480938C0461E081E00E9485219093A9
:1026F00077048093760461E081E00E9485219093C5
:102700007B0480937A0461E081E00E9485219093AC
:1027100083048093820461E081E00E94852190938C
:102720008B0480938A0480E094E00E94DA0B10E02E
:1027300000E022E040E054E060E274E086E19FE0E7
:102740000E94522085E294E00E94DA0B8FE394E02D
:10275000DF91CF911F910F910C94DA0B34E041CEB1
:102760008BE690E060CE8DE690E05DCE88E022338F
:1027700009F467CE84E0233309F463CE82E0243386
:1027800009F45FCE82EC820F883018F42E53330B9D
:1027900053CE81E056CE1F920F920FB60F921124A6
:1027A0000BB60F922F933F934F935F936F937F934B
:1027B0008F939F93AF93BF93EF93FF938DE795E034
:1027C0000E94CD06FF91EF91BF91AF919F918F91A4
:1027D0007F916F915F914F913F912F910F900BBE21
:1027E0000F900FBE0F901F9018951F920F920FB66B
:1027F0000F9211240BB60F922F938F939F93EF9309
:10280000FF93E0918D05F0918E058081E091930515
:10281000F091940582FD1DC09081809196058F5F97
:102820008F7320919705821741F0E0919605F0E0B3
:10283000E358FA4F958F80939605FF91EF919F9102
:102840008F912F910F900BBE0F900FBE0F901F9086
:1028500018958081F2CF1F920F920FB60F9211241C
:102860000BB60F922F933F934F935F936F937F938A
:102870008F939F93AF93BF93EF93FF938AE196E07B
:102880000E94CD06FF91EF91BF91AF919F918F91E3
:102890007F916F915F914F913F912F910F900BBE60
:1028A0000F900FBE0F901F9018951F920F920FB6AA
:1028B0000F9211240BB60F922F938F939F93EF9348
:1028C000FF93E0912A06F0912B068081E09130067B
:1028D000F091310682FD1DC09081809133068F5F9B
:1028E0008F7320913406821741F0E0913306F0E0B7
:1028F000E65EF94F958F80933306FF91EF919F919C
:102900008F912F910F900BBE0F900FBE0F901F90C5
:1029100018958081F2CF1F920F920FB60F9211245B
:102920002F933F938F939F93AF93BF938091FA041C
:102930009091FB04A091FC04B091FD043091F90446
:1029400023E0230F2D3758F50196A11DB11D2093CB
:10295000F9048093FA049093FB04A093FC04B093D1
:10296000FD048091FE049091FF04A0910005B091B8
:1029700001050196A11DB11D8093FE049093FF04F3
:10298000A0930005B0930105BF91AF919F918F91E6
:102990003F912F910F900FBE0F901F90189526E832
:1029A000230F0296A11DB11DD2CF1F920F920FB619
:1029B0000F9211240BB60F922F933F934F935F9377
:1029C0006F937F938F939F93AF93BF93EF93FF93F7
:1029D0008091F7049091F8048093B2008091F30401
:1029E0009091F404A091F504B091F6040196A11D14
:1029F000B11D8093F3049093F404A093F504B09375
:102A0000F6048091F3049091F404A091F504B09140
:102A1000F6044091EF045091F0046091F10470913C
:102A2000F20484179507A607B70710F18091EE040A
:102A300081111EC081E08093EE048091F304909197
:102A4000F404A091F504B091F604841B950BA60B39
:102A5000B70B8093F3049093F404A093F504B09320
:102A6000F604E091EC04F091ED0419951092EE0457
:102A7000FF91EF91BF91AF919F918F917F916F9156
:102A80005F914F913F912F910F900BBE0F900FBE12
:102A90000F901F9018951F920F920FB60F9211244E
:102AA0000BB60F922F933F934F935F936F937F9348
:102AB0008F939F93AF93BF93EF93FF9348E251E0BF
:102AC00064E271E090E080E00E948809FF91EF915C
:102AD000BF91AF919F918F917F916F915F914F9136
:102AE0003F912F910F900BBE0F900FBE0F901F9034
:102AF00018951F920F920FB60F9211240BB60F92DA
:102B00002F933F934F935F936F937F938F939F93F5
:102B1000AF93BF93EF93FF9348EA50E064EA70E00D
:102B200083E090E00E948809FF91EF91BF91AF91FF
:102B30009F918F917F916F915F914F913F912F91D5
:102B40000F900BBE0F900FBE0F901F9018951F9205
:102B50000F920FB60F9211240BB60F922F933F9343
:102B60004F935F936F937F938F939F93AF93BF9395
:102B7000EF93FF9348E950E064E970E082E090E071
:102B80000E948809FF91EF91BF91AF919F918F9122
:102B90007F916F915F914F913F912F910F900BBE5D
:102BA0000F900FBE0F901F9018951F920F920FB6A7
:102BB0000F9211240BB60F922F933F934F935F9375
:102BC0006F937F938F939F93AF93BF93EF93FF93F5
:102BD00048E850E064E870E081E090E00E948809F5
:102BE000FF91EF91BF91AF919F918F917F916F91E5
:102BF0005F914F913F912F910F900BBE0F900FBEA1
:102C00000F901F9018951F920F920FB60F921124DC
:102C10000BB60F922F933F934F935F936F937F93D6
:102C20008F939F93AF93BF93EF93FF93E091E6044D
:102C3000F091E704309749F0A685B7858585968D94
:102C400091FF16C09C918923B1F4FF91EF91BF9140
:102C5000AF919F918F917F916F915F914F913F9134
:102C60002F910F900BBE0F900FBE0F901F901895D5
:102C70009C91892351F7A389B4899C91858980957A
:102C800089238C93868997890197F1F7608D718DDF
:102C9000A685B785558538E020E0CB010197F1F78F
:102CA000822F90E095958795282F4C91452309F028
:102CB0002068315091F7868D81FD20958091E40444
:102CC00090E001968F7399273091E504381799F0B9
:102CD000A091E404B0E0AC55BB4F2C938093E40486
:102CE000828D938D0197F1F7A389B4898C91958991
:102CF000892B8C93AACF868D8160868FF1CFE0914E
:102D00002305F09124058081811107C08FEF9FEF8B
:102D100090931B0580931A050895E0912305F09187
:102D200024050580F681E02D80819181F1CFFC01A1
:102D3000DB010FB6F8940F9240915505509156055E
:102D40002D913C9111972F3F320711F18181928192
:102D5000609157057081761749F04817590730F090
:102D60001D921C9281E00F900FBE0895481B590BD5
:102D700042175307A8F7241B350B2D933C938091E2
:102D800057058083809155059091560592838183E4
:102D900080E0E9CFCF93DF93DC011596ED91FC91B4
:102DA0000680F781E02DA489B589868597852089DD
:102DB0003189EC013D832C83C089D1899B838A832F
:102DC000CF010C9611962D913C9112972817390737
:102DD00021F41296DC93CE931197158A148A2C91C4
:102DE00021502C9320911E05211157C0A285B38537
:102DF0008481958126813781EC013D832C83C681B6
:102E0000D7819B838A83CF01029611962D913C91A5
:102E100012972817390721F41296DC93CE93119755
:102E2000138612862C9121502C93C68920917C0503
:102E30002C1710F4C0937C0529E02C9FE00111248D
:102E4000C85ADA4F0980DA81C02DD583C4834C81FA
:102E50005D8157834683AC81BD8113969C938E938D
:102E600012979D838C83A689A29FD0011124A85A12
:102E7000BA4FB387A2878C918F5F8C93A0916A041D
:102E8000B0916B04968956968C91891730F581E044
:102E90008093A104DF91CF910895A0913805B0915E
:102EA0003905B787A68714962D913C911597318BDC
:102EB000208B1496CD91DC9115979B838A83159670
:102EC0009C938E93149787E395E0958B848B8091E8
:102ED00037058F5F80933705D1CF80E0DBCF0FB60A
:102EE000F8940F9280915505909156050F900FBE62
:102EF000089580911E058F5F80931E0508950FB67B
:102F0000F8940F92FC01928D0F900FBE81E0911109
:102F100080E00895EF92FF920F931F93CF93DF937A
:102F2000EC010FB6F8940F921E8D7C0181E1E80E42
:102F3000F11C01E01116D4F08FEF8E8F0F900FBEB1
:102F40000FB6F8940F921D8D7E0188E0E80EF11CFB
:102F500001E01116B4F08FEF8D8F0F900FBEDF914F
:102F6000CF911F910F91FF90EF9008958989882349
:102F700019F3C7010E94CA1681110093A1041150D0
:102F8000D9CF8885882339F3C7010E94CA168111D9
:102F90000093A1041150DDCFCF93DF93FC01A085F6
:102FA000B1858281938124813581EC013D832C831D
:102FB000C481D5819B838A8311968D919C911297B0
:102FC0008E179F0721F41296DC93CE9311971186EA
:102FD00010868C9181508C938C91DF91CF910895C4
:102FE0000F931F93CF93DF938C01FB01808191811D
:102FF000D80113968F3F9807F1F4E801AF81B885A7
:1030000012968D919C91139793838283EC01FD839B
:10301000EC83B583A4831396FC93EE9312971187E8
:103020000087F80180818F5F8083DF91CF911F91AE
:103030000F910895D90112962D913C911397E901B2
:103040004881598184179507A8F7DACFFC0173836B
:103050006283918780874617570790F0421B530B76
:103060008485958548175907C8F4BF016E5F7F4F67
:1030700080910205909103050E94F01780E0089569
:103080004217530718F46217730740F4BF016E5FCD
:103090007F4F8091040590910505EECF81E0089562
:1030A000FF920F931F93CF93DF93EC01F62E0091C5
:1030B00055051091560580916A0490916B04029613
:1030C0000E94CC17CF3FDC07E9F5FF20D9F1E09152
:1030D0002605F0912705A0916A04B0916B0415961E
:1030E000FC93EE931497A0916A04B0916B048481D1
:1030F000958117969C938E93169780916A04909170
:103100006B04A481B581029613969C938E931297BB
:1031100080916A0490916B04029695838483E09178
:103120006A04F0916B0485E295E093878287809131
:1031300025058F5F80932505DF91CF911F910F911A
:10314000FF900895C00FD11FE0916A04F0916B04C5
:10315000D383C28360916A0470916B04C017D10756
:1031600068F480912105909122056E5F7F4FDF9179
:10317000CF911F910F91FF900C94F0178091230530
:10318000909124056E5F7F4F0E94F01780911A0581
:1031900090911B05C817D90778F6D0931B05C093EB
:1031A0001A05CACFFC010396928381832FEF3FEF6C
:1031B0003483238396838583908787831082089541
:1031C0000F920FB6F8940F920BB60F920CB60F92A7
:1031D0001F9211242F923F924F925F926F927F9293
:1031E0008F929F92AF92BF92CF92DF92EF92FF9217
:1031F0000F931F932F933F934F935F936F937F93FF
:103200008F939F93AF93BF93CF93DF93EF93FF93EE
:10321000A0916A04B0916B040DB60D920EB60D929A
:1032200080911E05882321F081E08093A1045FC076
:103230001092A104A0916A04B0916B04E0916A0419
:10324000F0916B042D913C918789908D82179307A3
:10325000A8F080916A0490916B0480916A04909127
:103260006B04279A2F9A2FEF87EA91E6215080402E
:103270009040E1F700C000001F9AF5CF20917C0537
:1032800089E001C02150422F50E0849FF001859FCA
:10329000F00D1124E85AFA4F9081992399F3A181F6
:1032A000B28112960D90BC91A02DB283A183289F6C
:1032B000C0011124855A9A4FA817B90729F412960C
:1032C0008D919C919283818389E0849FF001859FF9
:1032D000F00D1124E85AFA4F0180F281E02D868129
:1032E000978190936B0480936A0420937C05A0914E
:1032F0006A04B0916B04CD91CDBFDD91DEBFFF912B
:10330000EF91DF91CF91BF91AF919F918F917F917D
:103310006F915F914F913F912F911F910F91FF906E
:10332000EF90DF90CF90BF90AF909F908F907F9065
:103330006F905F904F903F902F901F900F900CBE1A
:103340000F900BBE0F900FBE0F9008958F929F921B
:10335000BF92CF92DF92EF92FF920F931F93CF9382
:10336000DF930FB6F8940F9280911E0581508093E1
:103370001E0580911E05882379F080E00F900FBE16
:10338000DF91CF911F910F91FF90EF90DF90CF9041
:10339000BF909F908F90089580915405882369F382
:1033A000E0903C05F0903D05F0E0E0E039E041E0E0
:1033B0008091370581115EC0EF2B11F00E947F16BE
:1033C000E0909F04F090A004E114F10409F47DC1A1
:1033D00089E0D82ECC24C3940FEF1FEF80911E05F7
:1033E000811161C1C0915505D09156054E018FEFF5
:1033F000881A980A90925605809255058114910476
:10340000B9F48091230590912405209121053091F4
:103410002205309324052093230590932205809361
:103420002105809157058F5F809357050E947F1675
:1034300080911A0590911B05B12C8816990608F009
:1034400026C1E0916A04F0916B04E689DE9EF001EA
:103450001124E85AFA4F8081823010F0BB24B394D3
:103460008091A104811103C0BB2009F425C1C09241
:10347000A10422C1D7011696ED91FC91A489B589CA
:103480006685778580899189EB019D838C8380890E
:103490009189EC017B836A83BF01645F7F4F119642
:1034A0000D911C9112970617170721F412969C9301
:1034B0008E931197158A148A8C9181508C93A285D2
:1034C000B3858481958166817781EC017D836C83EE
:1034D00066817781EB019B838A83CF0102961196E7
:1034E0000D911C9112970817190721F412967C93DD
:1034F0006E931197138612862C9121502C93A689D6
:1035000020917C052A1710F4A0937C053A9FD001E6
:103510001124A85ABA4F11960D90BC91A02DB583D5
:10352000A48314966D917C91159777836683149686
:103530006D917C911597EB019B838A8315969C93E3
:103540008E9314979689939FD0011124A85ABA4F4D
:10355000B387A2878C918F5F8C93A0916A04B091FE
:103560006B0456968C91981708F422CF4093A104CF
:103570001FCFE0912305F09124050580F681E02D11
:103580000680F781E02D828193818816990628F4C0
:1035900090931B0580931A0554CFC285D3858481EF
:1035A000958126813781DC0115963C932E931497E3
:1035B00026813781D90113969C938E931297CF0160
:1035C000029649815A814817590711F43A83298391
:1035D00013861286288121502883A489B5891097E3
:1035E000F9F02685378540895189E9015D834C834F
:1035F00040895189EA013B832A8311966D917C9120
:1036000012979F01245F3F4F6217730721F41296B0
:103610005C934E931197158A148A2C9121502C9308
:10362000A68920917C052A1710F4A0937C05DA9EC8
:10363000D0011124A85ABA4F11960D90BC91A02D1B
:10364000B583A48314962D913C91159737832683D7
:1036500014962D913C911597E9019B838A831596C9
:103660009C938E93149796899D9DD0011124A85AFE
:10367000BA4FB387A2878C918F5F8C93E0916A04D5
:10368000F0916B048689981710F0BB24B394E091F5
:103690002305F0912405808181116BCF10931B05C8
:1036A00000931A05CECE80919F049091A0040196BC
:1036B0009093A00480939F04D1E0ED1AF10809F0E3
:1036C0008DCE1092A00410929F048091A1048823B3
:1036D00009F453CE0E94E01881E050CEAF92BF9221
:1036E000CF92DF92EF92FF920F931F93CF93DF93CE
:1036F00000D01F921F92CDB7DEB78C017B015D8396
:103700004C8380E0680198E0C90ED11C0FB6F89494
:103710000F92D8015A962C915A975B969C915B9781
:10372000291708F0B0C05A96DC905A975C964C91D5
:103730005C9741118DC08D919C91892B11F080E097
:103740000AC0F801E480F580E114F10439F580E065
:10375000F80115821482D394D8015A96DC925A97B4
:1037600051969C91992321F0C80141960E94CA1656
:1037700081110E94E0180F900FBE81E00F900F9012
:103780000F900F900F90DF91CF911F910F91FF90AD
:10379000EF90DF90CF90BF90AF900895D7019296B1
:1037A0008C919297815092968C93929756962C91E9
:1037B000569791969C91291751F28111C8CF5701C4
:1037C000B2E0AB0EB11CC5010E94CC17F70181A17C
:1037D000868B482F50E024E030E0241B350B3587E2
:1037E000248790917C05981710F480937C0589E0DC
:1037F000849FD001859FB00D1124A85ABA4F11960D
:103800000D90BC91A02DF701B583A48314962D9142
:103810003C911597378326831496ED91FC9115976B
:10382000B382A2821596BC92AE921497D701569697
:10383000EC915697E89FF0011124E85AFA4F1B9635
:10384000FC93EE931A9780818F5F808381E080CF15
:1038500050E0B70112968D919C910E94CB29F801FE
:10386000848D22813381820F932F911D93838283D4
:10387000248135818217930708F461CF808191817B
:10388000938382835CCF2C813D81232B21F40F9085
:103890000FBE80E073CF811109C0809157058983E5
:1038A00080915505909156059B838A830F900FBE9A
:1038B0000E9479170FB6F8940F92F801858D8F3F0B
:1038C00009F4158ED8015E968C915E978F3F11F4A6
:1038D0005E961C920F900FBEBE016C5F7F4FCE01B3
:1038E00001960E94971681112AC00FB6F8940F9284
:1038F000F801928D838D0F900FBE98131AC0AC8083
:10390000BD8060916A0470916B04645F7F4FC60153
:103910000E94F01761E0C5010E945018C8010E9482
:103920008A170E94A619811102C00E94E01881E046
:10393000EDCEC8010E948A170E94A619F8CFC801CF
:103940000E948A170E94A619A4CFCF93DF9300D0BC
:103950001F921F92CDB7DEB79C0180911F059091F9
:1039600020050097C9F019827B836A833D832C83ED
:103970002091530550E040E0BE016F5F7F4F211161
:1039800020911E050E946E1B0F900F900F900F90BC
:103990000F90DF91CF91089580E0F6CFEF92FF92E4
:1039A0000F931F93CF93DF93E0910405F0910505EA
:1039B0008081811113C0809102059091030590933D
:1039C000050580930405F0930305E0930205DF915C
:1039D000CF911F910F91FF90EF9008950580F68190
:1039E000E02D00811181C681D7817E0182E0E80E41
:1039F000F11CC7010E94CC17E889F989CE011995FD
:103A00008A8982FFD1CF8C859D85800F911F0817F1
:103A1000190760F49B838A83D987C887B70180918F
:103A20000405909105050E94F017BECFB801CE01A4
:103A30000E94A51CB9CFCF93DF93009751F0EC0102
:103A40000E947917CE010E94E524DF91CF910C945A
:103A5000A619DF91CF910895CF93DF93EC01892BC5
:103A600029F40E94E018DF91CF9108950E94791700
:103A700060E0CE010E9450180E94A619882389F3A5
:103A8000F2CF0F931F93CF93DF93EC010FB6F8940F
:103A90000F92892B21F4C0916A04D0916B048E019E
:103AA0000E5F1F4FC8010E94CC178C899D89892BFE
:103AB00021F0CE010C960E94CC17809152058F5FA9
:103AC0008093520580916A0490916B048C179D0736
:103AD000A1F5E0912F05F0913005FD83EC83848101
:103AE00095819F838E83A481B58113961C930E9339
:103AF0001297158304838EE295E09B878A878091D5
:103B00002E058F5F80932E0580919E048F5F80939A
:103B10009E040F900FBE80915305882349F0809139
:103B20006A0490916B048C179D0711F40E94E018B1
:103B3000DF91CF911F910F9108958091540581508D
:103B4000809354058F89988D0E941B1DCE010E9481
:103B50001B1D0E947F16DDCFAF92BF92CF92DF92E6
:103B6000EF92FF920F931F93CF93DF9300D01F929A
:103B70001F92CDB7DEB78C016B015D834C8380E073
:103B8000580191E1A90EB11C0FB6F8940F92F801FB
:103B9000F28CFF20C9F1448D4423B1F050E08681BE
:103BA0009781840F951F978386832481358182179F
:103BB000930720F08081918197838683F801668145
:103BC0007781C6010E94CB29FA94F801F28E808594
:103BD000882339F0C80108960E94CA1681110E94F4
:103BE000E0180F900FBE81E00F900F900F900F9094
:103BF0000F90DF91CF911F910F91FF90EF90DF9089
:103C0000CF90BF90AF9008952C813D81232B21F45C
:103C10000F900FBE80E0E8CF811109C08091570559
:103C2000898380915505909156059B838A830F90D7
:103C30000FBE0E9479170FB6F8940F92F801858D88
:103C40008F3F09F4158EF801868D8F3F09F4168E8B
:103C50000F900FBEBE016C5F7F4FCE0101960E9498
:103C60009716811125C0C8010E947F178823D1F0C3
:103C7000EC80FD8060916A0470916B04645F7F4FFB
:103C8000C5010E94F01761E0C7010E945018C801E9
:103C90000E948A170E94A619811102C00E94E01892
:103CA00081E072CFC8010E948A170E94A619F8CF3E
:103CB000C8010E948A170E94A619C8010E947F1796
:103CC000882371F3A7CF0F920FB6F8940F920BB61B
:103CD0000F920CB60F921F9211242F923F924F9287
:103CE0005F926F927F928F929F92AF92BF92CF928C
:103CF000DF92EF92FF920F931F932F933F934F9377
:103D00005F936F937F938F939F93AF93BF93CF9363
:103D1000DF93EF93FF93A0916A04B0916B040DB60B
:103D20000D920EB60D9213BE80911E058111F9C041
:103D30008091550590915605019690935605809374
:103D40005505009781F52091230530912405409178
:103D5000210550912205509324054093230530936B
:103D6000220520932105209157052F5F20935705A9
:103D7000E0912305F09124052081211107C02FEF48
:103D80003FEF30931B0520931A050DC0E0912305EA
:103D9000F09124050580F681E02D2081318130935A
:103DA0001B0520931A0520911A0530911B058217D7
:103DB000930710F420E0A1C020E039E0D32EE09179
:103DC0002305F09124053081311107C08FEF9FEF5B
:103DD00090931B0580931A0590C0E0912305F09104
:103DE00024050580F681E02D0680F781E02D4281D3
:103DF00053818417950728F450931B0540931A05A7
:103E00007CC0A285B3854481558166817781EA01B2
:103E10007D836C8366817781EB015B834A83AF018D
:103E20004E5F5F4F11960D911C9112970417150765
:103E300021F412967C936E931197138612863C910F
:103E400031503C93A489B5891097F9F06685778540
:103E500000891189EB011D830C8300891189E80118
:103E60007B836A831196ED90FC901297BF01645F8B
:103E70007F4FE616F70621F412961C930E931197C6
:103E8000158A148A3C9131503C93A68930917C0567
:103E90003A1710F4A0937C05DA9ED0011124A85A99
:103EA000BA4F11960D90BC91A02DB583A4831496A2
:103EB0006D917C9115977783668314966D917C91B3
:103EC0001597EB015B834A8315965C934E93149789
:103ED00046894D9DD0011124A85ABA4FB387A287B5
:103EE0003C913F5F3C93E0916A04F0916B0436890A
:103EF000431708F464CF21E062CFE0916A04F091A7
:103F00006B04E689D9E0ED9FF0011124E85AFA4FDD
:103F10008081823008F021E08091A10481110EC0DF
:103F20000AC080919F049091A00401969093A004F0
:103F300080939F046AC0222309F467C080911E0504
:103F4000882321F081E08093A1045FC01092A10436
:103F5000A0916A04B0916B04E0916A04F0916B0443
:103F60002D913C918789908D82179307A8F08091BD
:103F70006A0490916B0480916A0490916B04279A73
:103F80002F9A2FEF87EA91E6215080409040E1F789
:103F900000C000001F9AF5CF20917C0589E001C088
:103FA0002150422F50E0849FF001859FF00D112495
:103FB000E85AFA4F9081992399F3A181B281129620
:103FC0000D90BC91A02DB283A183289FC001112424
:103FD000855A9A4FA817B90729F412968D919C918A
:103FE0009283818389E0849FF001859FF00D1124E5
:103FF000E85AFA4F0180F281E02D868197819093F3
:104000006B0480936A0420937C05A0916A04B091AC
:104010006B04CD91CDBFDD91DEBFFF91EF91DF91BC
:10402000CF91BF91AF919F918F917F916F915F9150
:104030004F913F912F911F910F91FF90EF90DF9043
:10404000CF90BF90AF909F908F907F906F905F9038
:104050004F903F902F901F900F900CBE0F900BBE73
:104060000F900FBE0F900895CF93DF93EC010E9445
:104070007917CE010E944924EC010E94A6192097CD
:1040800069F4279A2F9A2FEF80E792E02150804021
:104090009040E1F700C000001F9AF5CFCE01DF91FC
:1040A000CF9108957F928F929F92AF92BF92CF92BD
:1040B000DF92EF92FF920F931F93CF93DF93982E8F
:1040C000A92E762E872E7A01B22ECA010E943420A4
:1040D0006C01892B09F4F8C088E290E00E9434203A
:1040E000EC01892B09F4EDC0D88ECF8AA70165EACF
:1040F00070E0C6010E94D42981E0E81AF108EF8936
:10410000F88DEE0DFF1D672D782DCE0149969B0190
:10411000285F3F4FDB014D91BD01DC014D93CD0187
:10412000AB0141505109DA014C91442319F0621757
:10413000730781F718A2BE8AB9A21AA21B861A8633
:104140001D8A1C8AD987C88784E090E08B19910961
:104150009D878C87DB8BCA8B84E09E012D5D3F4F52
:10416000D9011D928A95E9F71FA29082DF0111976C
:10417000AC9211971C9211971C92119780E88C9326
:1041800011971C9211971C9211971C9257971C9291
:1041900011971C92B697F983E8830115110519F060
:1041A000F801D183C0830FB6F8940F928091540523
:1041B0008F5F8093540580916A0490916B04892BE2
:1041C00009F091C0D0936B04C0936A0480915405A8
:1041D000813081F588E595E00E94D21881E695E06E
:1041E0000E94D2188AE695E00E94D21883E795E0F3
:1041F0000E94D21889E495E00E94D21880E495E0EC
:104200000E94D21887E395E00E94D2188EE295E0D2
:104210000E94D21885E295E00E94D21889E495E0C8
:10422000909324058093230580E495E090932205E4
:1042300080932105809152058F5F80935205AE894E
:1042400080917C058A1710F4A0937C0529E02A9FB1
:10425000D0011124A85ABA4F11960D90BC91A02DEF
:10426000BD83AC8314968D919C9115979F838E830B
:104270001496ED91FC911597CE010296938382835B
:1042800015969C938E931497EE89E29FF00111246A
:10429000E85AFA4FFB87EA8780818F5F80830F900F
:1042A0000FBE80915305882351F0E0916A04F0918C
:1042B0006B0496898E89981710F40E94E01881E0AB
:1042C00004C0C6010E941B1D8FEFDF91CF911F918B
:1042D0000F91FF90EF90DF90CF90BF90AF909F90A5
:1042E0008F907F900895809153058111A3CFE09125
:1042F0006A04F0916B0496898E89891708F49ACF25
:10430000D0936B04C0936A0495CF0F931F93CF9300
:10431000DF93082F162F869FC00111244F960E940D
:104320003420EC01009771F14F96998388830B8FAD
:104330001C8F0FB6F8940F92888199812B8D4C8D2C
:10434000BC01249F600D711D11247D836C831A8E26
:104350009B838A832150330B429FB001439F700D92
:104360001124860F971F9F838E838FEF8D8F8E8FE3
:10437000CE0108960E94D218CE0141960E94D21812
:104380000F900FBECE01DF91CF911F910F91089535
:104390000E94631E1895CF92DF92EF92FF921092C7
:1043A000800510927F0558EEC52E53E0D52EE12CE6
:1043B000F12CC0928105D0928205E0928305F092A3
:1043C000840583E192E090937E0580937D0525E34B
:1043D00031E030938A052093890524E331E030935E
:1043E0008C0520938B0520E331E030938E052093DC
:1043F0008D0521E331E03093900520938F0522E372
:1044000031E0309392052093910526E331E030931B
:10441000940520939305109296051092970510929B
:1044200098051092990510921D0610921C06C092D4
:104430001E06D0921F06E0922006F092210690936D
:104440001B0680931A0685EC90E0909327068093D4
:10445000260684EC90E0909329068093280680EC51
:1044600090E090932B0680932A0681EC90E0909345
:104470002D0680932C0682EC90E090932F0680937B
:104480002E0686EC90E090933106809330061092D1
:10449000330610923406109235061092360685E8DF
:1044A00097E00E94E80B8FE797E00E94E80B89E70E
:1044B00097E00E94E80B83E797E00E94E80B8DE607
:1044C00097E00E94E80B1092510710925007C0929B
:1044D0005207D0925307E0925407F092550785E2B5
:1044E00092E090934F0780934E07109265071092C9
:1044F000640710926707109266071092690710927E
:10450000680710926B0710926A0760916C076E7FC4
:104510006D7F60936C076695617081E0682783E327
:104520000E94890761E083E30E941508E9ECF8E046
:10453000E491E0935E07E3E8F8E0E491F0E0EE0F49
:10454000FF1FEA5CF74F85919491909360078093E9
:104550005F0760E082E30E94150880916C0781FD8F
:1045600004C061E082E30E94890782E380935A07D6
:10457000E8ECF8E0E491E0935B07E2E8F8E0E4912E
:10458000F0E0EE0FFF1FE45EF74F8591949190935A
:104590005D0780935C0780914707803368F591E061
:1045A000980F9093470780934B0790E0FC01EE0F24
:1045B000FF1FE80FF91FE954F94F88EB9BE0928346
:1045C0008183809147078033D8F491E0980F9093CE
:1045D00047078093480790E0FC01EE0FFF1FE80FAC
:1045E000F91FE954F94F88EB9BE092838183FF9098
:1045F000EF90DF90CF9008958FEF80934B07E1CF3E
:104600008FEF80934807F3CF789484B5826084BDA0
:1046100084B5816084BD85B5826085BD85B58160C6
:1046200085BD80916E00816080936E001092810044
:1046300080918100826080938100809181008160FF
:1046400080938100809180008160809380008091C0
:10465000B10084608093B1008091B000816080934C
:10466000B0008091910082608093910080919100D0
:104670008160809391008091900081608093900090
:104680008091A10082608093A1008091A10081604F
:104690008093A1008091A00081608093A000809110
:1046A00021018260809321018091210181608093AA
:1046B00021018091200181608093200180917A0006
:1046C000846080937A0080917A00826080937A007F
:1046D00080917A00816080937A0080917A0080686E
:1046E00080937A001092C1002091090230910A0251
:1046F0008FEF91E2821B930B909306028093050249
:104700000E94E7100CE115E020E040EC50E06CE581
:1047100074E08EE694E00E945220813009F083C05C
:104720000FB6F8940F9280911F0590912005892B68
:10473000E1F48FE095E00E94D21886E095E00E94B7
:10474000D2188FE095E0909305058093040586E0EC
:1047500095E0909303058093020565E08AE00E944E
:1047600085219093200580931F050F900FBE8091A7
:104770001F0590912005892B09F455C008E115E02B
:1047800023E045E550E061E674E08CE994E00E94A6
:104790005220813009F047C0F8942FEF3FEF30935B
:1047A0001B0520931A05809353051092560510920D
:1047B0005505A89588E190EC0FB6F894A8958093DC
:1047C00060000FBE90936000A0916A04B0916B04EA
:1047D000CD91CDBFDD91DEBFFF91EF91DF91CF9104
:1047E000BF91AF919F918F917F916F915F914F9109
:1047F0003F912F911F910F91FF90EF90DF90CF90FD
:10480000BF90AF909F908F907F906F905F904F90F0
:104810003F902F901F900F900CBE0F900BBE0F90EB
:104820000FBE0F900895809104020E94E7100E942D
:104830005C07FDCF85E292E090934F0780934E078F
:104840008091E6049091E7048E54974071F4E091D2
:104850006107F091620790818091630780958923B9
:1048600080831092E7041092E6048DE697E00E94A0
:104870001C0C83E797E00E941C0C89E797E00E94DC
:104880001C0C8FE797E00E941C0C85E897E00C94C5
:104890001C0C0F931F93CF93DF938230910510F47C
:1048A00082E090E0E0918D07F0918E0730E020E00B
:1048B000B0E0A0E0309799F42115310509F44AC021
:1048C000281B390B24303105D8F58A819B8161156D
:1048D000710589F1FB0193838283FE0111C0408140
:1048E00051810281138148175907E0F04817590791
:1048F00099F4109761F012960C93129713961C93EB
:104900003296CF01DF91CF911F910F9108950093BF
:104910008D0710938E07F4CF2115310551F0421702
:10492000530738F0A901DB019A01BD01DF01F8014D
:10493000C1CFEF01F9CF90938E0780938D07CDCF34
:10494000FE01E20FF31F81939193225031093983C5
:104950002883D7CF20918B0730918C07232B41F4EC
:10496000209107023091080230938C0720938B0727
:1049700020910502309106022115310541F42DB731
:104980003EB74091090250910A02241B350BE09179
:104990008B07F0918C07E217F307A0F42E1B3F0B57
:1049A0002817390778F0AC014E5F5F4F24173507A1
:1049B00048F04E0F5F1F50938C0740938B078193F5
:1049C00091939FCFF0E0E0E09CCFCF93DF930097EF
:1049D000E9F0FC01329713821282A0918D07B09109
:1049E0008E07ED0130E020E01097A1F420813181A5
:1049F000820F931F20918B0730918C07281739075E
:104A000009F061C0F0938C07E0938B07DF91CF91A1
:104A10000895EA01CE17DF07E8F54A815B819E0120
:104A200041155105B1F7E901FB83EA834991599199
:104A3000C40FD51FEC17FD0761F4808191810296A8
:104A4000840F951FE90199838883828193819B83D9
:104A50008A83F0E0E0E012968D919C911397009785
:104A6000B9F52D913C911197CD010296820F931FBC
:104A700020918B0730918C072817390739F630972A
:104A800051F510928E0710928D07B0938C07A0936A
:104A90008B07BCCFD383C28340815181840F951F84
:104AA000C817D90761F44E5F5F4F88819981480F1D
:104AB000591F518340838A819B819383828321156F
:104AC000310509F0B0CFF0938E07E0938D079ECFAC
:104AD000FD01DC01C0CF13821282D7CF8F929F924B
:104AE000AF92BF92CF92DF92EF92FF92CF93DF937C
:104AF000EC01688179818A819B816115710581054D
:104B0000910521F464E279ED8BE597E02DE133EF37
:104B100041E050E00E94312749015A019B01AC015C
:104B2000A7EAB1E40E9450276B017C01ACEEB4EF20
:104B3000A50194010E945E27C60ED71EE81EF91E2D
:104B4000F7FE06C081E0C81AD108E10880E8F80A3B
:104B5000C882D982EA82FB82C701B6019F77DF91C2
:104B6000CF91FF90EF90DF90CF90BF90AF909F904C
:104B70008F9008958F929F92AF92BF92CF92DF92C3
:104B8000EF92FF9260910B0270910C0280910D02E6
:104B900090910E02611571058105910521F464E281
:104BA00079ED8BE597E02DE133EF41E050E00E9495
:104BB000312749015A019B01AC01A7EAB1E40E94E7
:104BC00050276B017C01ACEEB4EFA50194010E946B
:104BD0005E27C60ED71EE81EF91EF7FE06C081E04E
:104BE000C81AD108E10880E8F80AC0920B02D092F6
:104BF0000C02E0920D02F0920E02C701B6019F77FF
:104C0000FF90EF90DF90CF90BF90AF909F908F90EC
:104C1000089560930B0270930C0280930D029093A1
:104C20000E020895E89409C097FB3EF49095809594
:104C3000709561957F4F8F4F9F4F9923A9F0F92F62
:104C400096E9BB279395F695879577956795B795E0
:104C5000F111F8CFFAF4BB0F11F460FF1BC06F5FC6
:104C60007F4F8F4F9F4F16C0882311F096E911C0D8
:104C7000772321F09EE8872F762F05C0662371F0F9
:104C800096E8862F70E060E02AF09A95660F771F0D
:104C9000881FDAF7880F9695879597F90895990FE9
:104CA0000008550FAA0BE0E8FEEF16161706E807F6
:104CB000F907C0F012161306E407F50798F0621B17
:104CC000730B840B950B39F40A2661F0232B242BEC
:104CD000252B21F408950A2609F4A140A6958FEF0B
:104CE000811D811D08950E9486260C94F7260E943E
:104CF000E92638F00E94F02620F0952311F00C945C
:104D0000E0260C94E62611240C942B270E940827F9
:104D100070F3959FC1F3950F50E0551F629FF0010E
:104D2000729FBB27F00DB11D639FAA27F00DB11D27
:104D3000AA1F649F6627B00DA11D661F829F2227B0
:104D4000B00DA11D621F739FB00DA11D621F839F37
:104D5000A00D611D221F749F3327A00D611D231F0D
:104D6000849F600D211D822F762F6A2F11249F575B
:104D700050409AF0F1F088234AF0EE0FFF1FBB1F5E
:104D8000661F771F881F91505040A9F79E3F51051D
:104D900080F00C94E0260C942B275F3FE4F3983EC0
:104DA000D4F3869577956795B795F795E7959F5FC7
:104DB000C1F7FE2B880F911D9695879597F9089559
:104DC00097F99F6780E870E060E008959FEF80ECBE
:104DD000089500240A941616170618060906089561
:104DE00000240A9412161306140605060895092EC7
:104DF0000394000C11F4882352F0BB0F40F4BF2B36
:104E000011F460FF04C06F5F7F4F8F4F9F4F089575
:104E100057FD9058440F551F59F05F3F71F047956B
:104E2000880F97FB991F61F09F3F79F08795089550
:104E3000121613061406551FF2CF4695F1DF08C06F
:104E4000161617061806991FF1CF8695710561058C
:104E500008940895E894BB2766277727CB0197F934
:104E60000895052E97FB1EF400940E94482757FDD5
:104E700007D00E94632707FC03D04EF40C94482708
:104E800050954095309521953F4F4F4F5F4F089576
:104E900090958095709561957F4F8F4F9F4F0895A6
:104EA0000E948527A59F900DB49F900DA49F800D13
:104EB000911D11240895B7FF0C9450270E9450278C
:104EC000821B930B0895A1E21A2EAA1BBB1BFD01A6
:104ED0000DC0AA1FBB1FEE1FFF1FA217B307E407D9
:104EE000F50720F0A21BB30BE40BF50B661F771F31
:104EF000881F991F1A9469F7609570958095909511
:104F00009B01AC01BD01CF010895A29FB001B39FE9
:104F1000C001A39F700D811D1124911DB29F700DC2
:104F2000811D1124911D08955058BB27AA270E9466
:104F3000AC270C94F7260E94E92638F00E94F02650
:104F400020F039F49F3F19F426F40C94E6260EF471
:104F5000E095E7FB0C94E026E92F0E94082758F320
:104F6000BA17620773078407950720F079F4A6F54E
:104F70000C942A270EF4E0950B2EBA2FA02D0B01CE
:104F8000B90190010C01CA01A0011124FF27591B8E
:104F900099F0593F50F4503E68F11A16F040A22F94
:104FA000232F342F4427585FF3CF46953795279505
:104FB000A795F0405395C9F77EF41F16BA0B620B04
:104FC000730B840BBAF09150A1F0FF0FBB1F661F4B
:104FD000771F881FC2F70EC0BA0F621F731F841F8E
:104FE00048F4879577956795B795F7959E3F08F0B4
:104FF000B0CF9395880F08F09927EE0F9795879576
:1050000008950E9415280C94F7260E94F02658F067
:105010000E94E92640F029F45F3F29F00C94E02635
:1050200051110C942B270C94E6260E94082768F354
:105030009923B1F3552391F3951B550BBB27AA2751
:1050400062177307840738F09F5F5F4F220F331F8B
:10505000441FAA1FA9F335D00E2E3AF0E0E832D053
:1050600091505040E695001CCAF72BD0FE2F29D056
:10507000660F771F881FBB1F261737074807AB0728
:10508000B0E809F0BB0B802DBF01FF2793585F4F9D
:105090003AF09E3F510578F00C94E0260C942B27B3
:1050A0005F3FE4F3983ED4F3869577956795B7957F
:1050B000F7959F5FC9F7880F911D9695879597F98A
:1050C0000895E1E0660F771F881FBB1F6217730703
:1050D0008407BA0720F0621B730B840BBA0BEE1F18
:1050E00088F7E09508950E947A286894B1110C948D
:1050F0002B2708950E94102788F09F5798F0B92F0A
:105100009927B751B0F0E1F0660F771F881F991FFC
:105110001AF0BA95C9F714C0B13091F00E942A274D
:10512000B1E008950C942A27672F782F8827B85F5D
:1051300039F0B93FCCF3869577956795B395D9F754
:105140003EF490958095709561957F4F8F4F9F4F5E
:1051500008950E944F2608F48FEF0895991B79E077
:1051600004C0991F961708F0961B881F7A95C9F7F7
:105170008095089597FB072E16F4009407D077FDCD
:1051800009D00E94D62807FC05D03EF49095819561
:105190009F4F0895709561957F4F0895EE0FFF1F03
:1051A000881F8BBF0790F691E02D1994AA1BBB1B9B
:1051B00051E107C0AA1FBB1FA617B70710F0A61B17
:1051C000B70B881F991F5A95A9F780959095BC0138
:1051D000CD0108954F925F926F927F928F929F922E
:1051E000AF92BF92CF92DF92EF92FF920F931F93F5
:1051F000CF93DF938C01009799F4CB01DF91CF918E
:105200001F910F91FF90EF90DF90CF90BF90AF90E4
:105210009F908F907F906F905F904F900C94492457
:10522000FC01E60FF71F9C0122503109E217F3073A
:1052300008F4AEC0D901CD91DC911197C617D707FC
:1052400020F1C530D10578F0CE0104978617970775
:1052500050F0C61BD70B2297C193D1936D937C93CB
:10526000CF010E94E524C801DF91CF911F910F91DA
:10527000FF90EF90DF90CF90BF90AF909F908F9076
:105280007F906F905F904F9008955B01AC1ABD0ABC
:105290004C018C0E9D1EA0918D07B0918E07512C54
:1052A000412CF12CE12C109731F580918B079091D6
:1052B0008C078815990509F05CC04616570608F05A
:1052C00058C08091050290910602009741F48DB775
:1052D0009EB74091090250910A02841B950BE81772
:1052E000F90708F055C0F0938C07E0938B07F9019C
:1052F00071836083B8CF8D919C91119712966C90B9
:10530000129713967C901397A815B90559F56C015F
:1053100042E0C40ED11CCA14DB0420F1AC014A19CE
:105320005B09DA011296159780F0628273825183CD
:105330004083D9016D937C93E114F10471F0D7019E
:105340001396FC93EE9312978ECF22968C0F9D1F8F
:10535000F90191838083F301EFCFF0938E07E093FF
:105360008D0781CF4816590608F42C017D01D30121
:105370009ACFCB010E9449247C01009749F0AE01ED
:10538000B8010E94CB29C8010E94E52487016BCF98
:1053900010E000E068CFFB01DC0102C001900D923B
:1053A00041505040D8F70895DC0101C06D93415041
:1053B0005040E0F70895FB01DC0101900D920020C0
:1053C000E1F7089515E0CDEED5E000E006C0802FAE
:1053D000FE010E94CE282196011DCE3ED10780E01D
:0853E0000807A9F7F894FFCFBC
:1053E800010101010300008F078000010000000097
:1053F800000000EF064F067C063C07AD068B069FB3
:1054080006000000005B0A4F06F00A5A0AB70ACFE6
:105418000A420A0D0A0053746570706572203220C2
:1054280070756C73653A20005374657070657220EE
:10543800312070756C73653A20005374657070651F
:105448007231526F7461746500537465707065725F
:1054580032526F746174650053746570706572338D
:10546800526F74617465005374657070657234525C
:105478006F746174650047657420696E746F207479
:105488006865206D61696E206C6F6F7021200A005D
:1054980050656E20646F776E210050656E207570C0
:1054A800210A000A53657269616C206D6F64756C1E
:1054B8006520283020262033292068617320626502
:1054C800656E20696E697469616C697A656421200A
:1054D800004C4544206D6F64756C652068617320CD
:1054E8006265656E20696E697469616C697A656464
:1054F800212000427574746F6E206D6F64756C6541
:1055080020686173206265656E20696E69746961DF
:105518006C697A6564212000537465707065722027
:105528006D6F746F72206D6F64756C652068617340
:10553800206265656E20696E697469616C697A6557
:10554800642120004D5033206D6F64756C652068B0
:105558006173206265656E20696E697469616C6942
:105568007A65642120004D61676E6574206D6F64F3
:10557800756C6520686173206265656E20696E6967
:105588007469616C697A6564212000536572766F6D
:10559800206D6F746F72206D6F64756C6520686123
:1055A80073206265656E20696E697469616C697AD9
:1055B8006564212000466C65786954696D657232AE
:1055C800206D6F64756C6520686173206265656E17
:1055D80020696E697469616C697A656421200A00C2
:1055E800496E666F207175657565732068617665AB
:1055F800206265656E2063726561746564212000B0
:105608004D61696E005461736B7320686176652023
:105618006265656E2063726561746564212000525D
:105628006F626F7420686173206265656E20696EB1
:10563800697469616C697A6564210A0049444C455A
:0A56480000546D72205376630000D9
:00000001FF
